{
  "contractName": "AlastriaProxy",
  "abi": [
    {
      "anonymous": false,
      "inputs": [
        {
          "indexed": true,
          "internalType": "address",
          "name": "destination",
          "type": "address"
        },
        {
          "indexed": false,
          "internalType": "uint256",
          "name": "value",
          "type": "uint256"
        },
        {
          "indexed": false,
          "internalType": "bytes",
          "name": "data",
          "type": "bytes"
        }
      ],
      "name": "Forwarded",
      "type": "event"
    },
    {
      "payable": false,
      "stateMutability": "nonpayable",
      "type": "fallback"
    },
    {
      "constant": true,
      "inputs": [
        {
          "internalType": "address",
          "name": "addr",
          "type": "address"
        }
      ],
      "name": "isOwner",
      "outputs": [
        {
          "internalType": "bool",
          "name": "",
          "type": "bool"
        }
      ],
      "payable": false,
      "stateMutability": "view",
      "type": "function"
    },
    {
      "constant": true,
      "inputs": [],
      "name": "owner",
      "outputs": [
        {
          "internalType": "address",
          "name": "",
          "type": "address"
        }
      ],
      "payable": false,
      "stateMutability": "view",
      "type": "function"
    },
    {
      "constant": false,
      "inputs": [
        {
          "internalType": "address",
          "name": "newOwner",
          "type": "address"
        }
      ],
      "name": "transfer",
      "outputs": [],
      "payable": false,
      "stateMutability": "nonpayable",
      "type": "function"
    },
    {
      "constant": false,
      "inputs": [
        {
          "internalType": "address",
          "name": "destination",
          "type": "address"
        },
        {
          "internalType": "uint256",
          "name": "value",
          "type": "uint256"
        },
        {
          "internalType": "bytes",
          "name": "data",
          "type": "bytes"
        }
      ],
      "name": "forward",
      "outputs": [],
      "payable": false,
      "stateMutability": "nonpayable",
      "type": "function"
    }
  ],
  "bytecode": "0x608060405260008054600160a060020a031916331790556103cb806100256000396000f3fe608060405234801561001057600080fd5b5060043610610068577c010000000000000000000000000000000000000000000000000000000060003504631a695230811461006d5780632f54bf6e146100955780638da5cb5b146100cf578063d7f31eb9146100f3575b600080fd5b6100936004803603602081101561008357600080fd5b5035600160a060020a03166101ae565b005b6100bb600480360360208110156100ab57600080fd5b5035600160a060020a03166101fc565b604080519115158252519081900360200190f35b6100d7610210565b60408051600160a060020a039092168252519081900360200190f35b6100936004803603606081101561010957600080fd5b600160a060020a038235169160208101359181019060608101604082013564010000000081111561013957600080fd5b82018360208201111561014b57600080fd5b8035906020019184600183028401116401000000008311171561016d57600080fd5b91908080601f01602080910402602001604051908101604052809392919081815260200183838082843760009201919091525092955061021f945050505050565b6101b7336101fc565b6101c057600080fd5b600160a060020a03811630146101f9576000805473ffffffffffffffffffffffffffffffffffffffff1916600160a060020a0383161790555b50565b600054600160a060020a0390811691161490565b600054600160a060020a031681565b610228336101fc565b61023157600080fd5b600083600160a060020a031683836040518082805190602001908083835b6020831061026e5780518252601f19909201916020918201910161024f565b6001836020036101000a03801982511681845116808217855250505050505090500191505060006040518083038185875af1925050503d80600081146102d0576040519150601f19603f3d011682016040523d82523d6000602084013e6102d5565b606091505b505080915050806102e557600080fd5b83600160a060020a03167fc1de93dfa06362c6a616cde73ec17d116c0d588dd1df70f27f91b500de207c4184846040518083815260200180602001828103825283818151815260200191508051906020019080838360005b8381101561035557818101518382015260200161033d565b50505050905090810190601f1680156103825780820380516001836020036101000a031916815260200191505b50935050505060405180910390a25050505056fea265627a7a7231582002795ae4b78c0e8595b0dd3af7c0dab9b99226680f23ef36badd86d8a7dfb3fb64736f6c63430005110032",
  "source": "pragma solidity 0.5.17;\n\nimport \"../libs/Owned.sol\";\n\ncontract AlastriaProxy is Owned {\n    //address public owner;\n\n    event Forwarded (address indexed destination, uint value, bytes data);\n\n    //TODO: upgradeable owner for version in Identity Manager\n    //constructor () public {\n    //    owner = msg.sender;\n    //}\n\n    function () external {\n        revert();\n    }\n\n    function forward(address destination, uint value, bytes memory data) public onlyOwner {\n        bool ret; \n        (ret, ) = destination.call.value(value)(data);\n        require(ret);\n        emit Forwarded(destination, value, data);\n    }\n}\n",
  "sourcePath": "/Users/danielluquequintana/Github/temp-alastriaID-truffle-contracts/contracts/identityManager/AlastriaProxy.sol",
  "compiler": {
    "name": "solc",
    "version": "0.5.17+commit.d19bba13.Emscripten.clang"
  },
  "schemaVersion": "3.3.2",
  "updatedAt": "2020-12-04T09:28:21.217Z",
  "devdoc": {
    "methods": {}
  },
  "userdoc": {
    "methods": {}
  }
}