{
  "contractName": "AlastriaIdentityServiceProvider",
  "abi": [
    {
      "constant": false,
      "inputs": [
        {
          "internalType": "address",
          "name": "_identityServiceProvider",
          "type": "address"
        }
      ],
      "name": "addIdentityServiceProvider",
      "outputs": [],
      "payable": false,
      "stateMutability": "nonpayable",
      "type": "function"
    },
    {
      "constant": false,
      "inputs": [
        {
          "internalType": "address",
          "name": "_identityServiceProvider",
          "type": "address"
        }
      ],
      "name": "deleteIdentityServiceProvider",
      "outputs": [],
      "payable": false,
      "stateMutability": "nonpayable",
      "type": "function"
    },
    {
      "constant": true,
      "inputs": [
        {
          "internalType": "address",
          "name": "_identityServiceProvider",
          "type": "address"
        }
      ],
      "name": "isIdentityServiceProvider",
      "outputs": [
        {
          "internalType": "bool",
          "name": "",
          "type": "bool"
        }
      ],
      "payable": false,
      "stateMutability": "view",
      "type": "function"
    }
  ],
  "bytecode": "0x608060405234801561001057600080fd5b50610221806100206000396000f3fe608060405234801561001057600080fd5b506004361061005d577c010000000000000000000000000000000000000000000000000000000060003504630ebbbffc81146100625780633bf4721514610097578063d024d9a4146100ca575b600080fd5b6100956004803603602081101561007857600080fd5b503573ffffffffffffffffffffffffffffffffffffffff16610111565b005b610095600480360360208110156100ad57600080fd5b503573ffffffffffffffffffffffffffffffffffffffff1661016b565b6100fd600480360360208110156100e057600080fd5b503573ffffffffffffffffffffffffffffffffffffffff166101c1565b604080519115158252519081900360200190f35b3361011b816101c1565b61012457600080fd5b8161012e816101c1565b1561013857600080fd5b505073ffffffffffffffffffffffffffffffffffffffff166000908152602081905260409020805460ff19166001179055565b80610175816101c1565b61017e57600080fd5b33610188816101c1565b61019157600080fd5b505073ffffffffffffffffffffffffffffffffffffffff166000908152602081905260409020805460ff19169055565b73ffffffffffffffffffffffffffffffffffffffff1660009081526020819052604090205460ff169056fea265627a7a723158202346fd65f0d659cf0238688f63e23c8c993bb9761a362082b1956e630f961e5b64736f6c63430005110032",
  "source": "pragma solidity 0.5.17;\n\nimport \"../libs/Eidas.sol\";\n\ncontract AlastriaIdentityServiceProvider {\n\n    using Eidas for Eidas.EidasLevel;\n\n    mapping(address => bool) internal providers;\n\n    modifier onlyIdentityServiceProvider(address _identityServiceProvider) {\n        require (isIdentityServiceProvider(_identityServiceProvider));\n        _;\n    }\n\n    modifier notIdentityServiceProvider(address _identityServiceProvider) {\n        require (!isIdentityServiceProvider(_identityServiceProvider));\n        _;\n    }\n\n    function _initialize(address _firstIdentity) internal {\n        providers[_firstIdentity] = true;\n    }\n\n    function addIdentityServiceProvider(address _identityServiceProvider) public onlyIdentityServiceProvider(msg.sender) notIdentityServiceProvider(_identityServiceProvider) {\n        providers[_identityServiceProvider] = true;\n    }\n\n    function deleteIdentityServiceProvider(address _identityServiceProvider) public onlyIdentityServiceProvider(_identityServiceProvider) onlyIdentityServiceProvider(msg.sender) {\n        providers[_identityServiceProvider] = false;\n    }\n\n    function isIdentityServiceProvider(address _identityServiceProvider) public view returns (bool) {\n        return providers[_identityServiceProvider];\n    }\n\n}\n",
  "sourcePath": "/Users/danielluquequintana/Github/temp-alastriaID-truffle-contracts/contracts/identityManager/AlastriaIdentityServiceProvider.sol",
  "compiler": {
    "name": "solc",
    "version": "0.5.17+commit.d19bba13.Emscripten.clang"
  },
  "schemaVersion": "3.3.2",
  "updatedAt": "2020-12-04T09:28:21.215Z",
  "devdoc": {
    "methods": {}
  },
  "userdoc": {
    "methods": {}
  }
}