{
  "contractName": "AlastriaIdentityEntity",
  "abi": [
    {
      "inputs": [],
      "payable": false,
      "stateMutability": "nonpayable",
      "type": "constructor"
    },
    {
      "constant": false,
      "inputs": [
        {
          "internalType": "address",
          "name": "_addressEntity",
          "type": "address"
        },
        {
          "internalType": "string",
          "name": "_name",
          "type": "string"
        },
        {
          "internalType": "string",
          "name": "_cif",
          "type": "string"
        },
        {
          "internalType": "string",
          "name": "_url_logo",
          "type": "string"
        },
        {
          "internalType": "string",
          "name": "_url_createAID",
          "type": "string"
        },
        {
          "internalType": "string",
          "name": "_url_AOA",
          "type": "string"
        },
        {
          "internalType": "bool",
          "name": "_active",
          "type": "bool"
        }
      ],
      "name": "addEntity",
      "outputs": [],
      "payable": false,
      "stateMutability": "nonpayable",
      "type": "function"
    },
    {
      "constant": false,
      "inputs": [
        {
          "internalType": "address",
          "name": "_addressEntity",
          "type": "address"
        },
        {
          "internalType": "string",
          "name": "_name",
          "type": "string"
        }
      ],
      "name": "setNameEntity",
      "outputs": [],
      "payable": false,
      "stateMutability": "nonpayable",
      "type": "function"
    },
    {
      "constant": false,
      "inputs": [
        {
          "internalType": "address",
          "name": "_addressEntity",
          "type": "address"
        },
        {
          "internalType": "string",
          "name": "_cif",
          "type": "string"
        }
      ],
      "name": "setCifEntity",
      "outputs": [],
      "payable": false,
      "stateMutability": "nonpayable",
      "type": "function"
    },
    {
      "constant": false,
      "inputs": [
        {
          "internalType": "address",
          "name": "_addressEntity",
          "type": "address"
        },
        {
          "internalType": "string",
          "name": "_url_logo",
          "type": "string"
        }
      ],
      "name": "setUrlLogo",
      "outputs": [],
      "payable": false,
      "stateMutability": "nonpayable",
      "type": "function"
    },
    {
      "constant": false,
      "inputs": [
        {
          "internalType": "address",
          "name": "_addressEntity",
          "type": "address"
        },
        {
          "internalType": "string",
          "name": "_url_createAID",
          "type": "string"
        }
      ],
      "name": "setUrlCreateAID",
      "outputs": [],
      "payable": false,
      "stateMutability": "nonpayable",
      "type": "function"
    },
    {
      "constant": false,
      "inputs": [
        {
          "internalType": "address",
          "name": "_addressEntity",
          "type": "address"
        },
        {
          "internalType": "string",
          "name": "_url_AOA",
          "type": "string"
        }
      ],
      "name": "setUrlAOA",
      "outputs": [],
      "payable": false,
      "stateMutability": "nonpayable",
      "type": "function"
    },
    {
      "constant": true,
      "inputs": [
        {
          "internalType": "address",
          "name": "_addressEntity",
          "type": "address"
        }
      ],
      "name": "getEntity",
      "outputs": [
        {
          "internalType": "string",
          "name": "_name",
          "type": "string"
        },
        {
          "internalType": "string",
          "name": "_cif",
          "type": "string"
        },
        {
          "internalType": "string",
          "name": "_url_logo",
          "type": "string"
        },
        {
          "internalType": "string",
          "name": "_url_createAID",
          "type": "string"
        },
        {
          "internalType": "string",
          "name": "_url_AOA",
          "type": "string"
        },
        {
          "internalType": "bool",
          "name": "_active",
          "type": "bool"
        }
      ],
      "payable": false,
      "stateMutability": "view",
      "type": "function"
    },
    {
      "constant": true,
      "inputs": [],
      "name": "entitiesList",
      "outputs": [
        {
          "internalType": "address[]",
          "name": "",
          "type": "address[]"
        }
      ],
      "payable": false,
      "stateMutability": "view",
      "type": "function"
    }
  ],
  "bytecode": "0x608060405234801561001057600080fd5b50336000908152602081905260409020600501805460ff191660011790556111be8061003d6000396000f3fe608060405234801561001057600080fd5b50600436106100a5576000357c01000000000000000000000000000000000000000000000000000000009004806375894e8c1161007857806375894e8c146103265780638e672cf714610567578063c4c023331461061d578063eb5c426c146108f1576100a5565b80630ff72ef2146100aa5780631e5f6f01146101625780634b7a1859146102185780636e7a216b146102ce575b600080fd5b610160600480360360408110156100c057600080fd5b600160a060020a0382351691908101906040810160208201356401000000008111156100eb57600080fd5b8201836020820111156100fd57600080fd5b8035906020019184600183028401116401000000008311171561011f57600080fd5b91908080601f0160208091040260200160405190810160405280939291908181526020018383808284376000920191909152509295506109a7945050505050565b005b6101606004803603604081101561017857600080fd5b600160a060020a0382351691908101906040810160208201356401000000008111156101a357600080fd5b8201836020820111156101b557600080fd5b803590602001918460018302840111640100000000831117156101d757600080fd5b91908080601f016020809104026020016040519081016040528093929190818152602001838380828437600092019190915250929550610a09945050505050565b6101606004803603604081101561022e57600080fd5b600160a060020a03823516919081019060408101602082013564010000000081111561025957600080fd5b82018360208201111561026b57600080fd5b8035906020019184600183028401116401000000008311171561028d57600080fd5b91908080601f016020809104026020016040519081016040528093929190818152602001838380828437600092019190915250929550610a65945050505050565b6102d6610ac1565b60408051602080825283518183015283519192839290830191858101910280838360005b838110156103125781810151838201526020016102fa565b505050509050019250505060405180910390f35b61034c6004803603602081101561033c57600080fd5b5035600160a060020a0316610b24565b6040518080602001806020018060200180602001806020018715151515815260200186810386528c818151815260200191508051906020019080838360005b838110156103a357818101518382015260200161038b565b50505050905090810190601f1680156103d05780820380516001836020036101000a031916815260200191505b5086810385528b5181528b516020918201918d019080838360005b838110156104035781810151838201526020016103eb565b50505050905090810190601f1680156104305780820380516001836020036101000a031916815260200191505b5086810384528a5181528a516020918201918c019080838360005b8381101561046357818101518382015260200161044b565b50505050905090810190601f1680156104905780820380516001836020036101000a031916815260200191505b5086810383528951815289516020918201918b019080838360005b838110156104c35781810151838201526020016104ab565b50505050905090810190601f1680156104f05780820380516001836020036101000a031916815260200191505b5086810382528851815288516020918201918a019080838360005b8381101561052357818101518382015260200161050b565b50505050905090810190601f1680156105505780820380516001836020036101000a031916815260200191505b509b50505050505050505050505060405180910390f35b6101606004803603604081101561057d57600080fd5b600160a060020a0382351691908101906040810160208201356401000000008111156105a857600080fd5b8201836020820111156105ba57600080fd5b803590602001918460018302840111640100000000831117156105dc57600080fd5b91908080601f016020809104026020016040519081016040528093929190818152602001838380828437600092019190915250929550610e93945050505050565b610160600480360360e081101561063357600080fd5b600160a060020a03823516919081019060408101602082013564010000000081111561065e57600080fd5b82018360208201111561067057600080fd5b8035906020019184600183028401116401000000008311171561069257600080fd5b91908080601f01602080910402602001604051908101604052809392919081815260200183838082843760009201919091525092959493602081019350359150506401000000008111156106e557600080fd5b8201836020820111156106f757600080fd5b8035906020019184600183028401116401000000008311171561071957600080fd5b91908080601f016020809104026020016040519081016040528093929190818152602001838380828437600092019190915250929594936020810193503591505064010000000081111561076c57600080fd5b82018360208201111561077e57600080fd5b803590602001918460018302840111640100000000831117156107a057600080fd5b91908080601f01602080910402602001604051908101604052809392919081815260200183838082843760009201919091525092959493602081019350359150506401000000008111156107f357600080fd5b82018360208201111561080557600080fd5b8035906020019184600183028401116401000000008311171561082757600080fd5b91908080601f016020809104026020016040519081016040528093929190818152602001838380828437600092019190915250929594936020810193503591505064010000000081111561087a57600080fd5b82018360208201111561088c57600080fd5b803590602001918460018302840111640100000000831117156108ae57600080fd5b91908080601f0160208091040260200160405190810160405280939291908181526020018383808284376000920191909152509295505050503515159050610eef565b6101606004803603604081101561090757600080fd5b600160a060020a03823516919081019060408101602082013564010000000081111561093257600080fd5b82018360208201111561094457600080fd5b8035906020019184600183028401116401000000008311171561096657600080fd5b91908080601f01602080910402602001604051908101604052809392919081815260200183838082843760009201919091525092955061109f945050505050565b600160a060020a038216600090815260208190526040902060050154829060ff1615156001146109d657600080fd5b600160a060020a0383166000908152602081815260409091208351610a03926002909201918501906110f1565b50505050565b600160a060020a038216600090815260208190526040902060050154829060ff161515600114610a3857600080fd5b600160a060020a0383166000908152602081815260409091208351610a03926001909201918501906110f1565b600160a060020a038216600090815260208190526040902060050154829060ff161515600114610a9457600080fd5b600160a060020a0383166000908152602081815260409091208351610a03926003909201918501906110f1565b60606001805480602002602001604051908101604052809291908181526020018280548015610b1957602002820191906000526020600020905b8154600160a060020a03168152600190910190602001808311610afb575b505050505090505b90565b600160a060020a0381166000908152602081815260408083208054825160026001831615610100026000190190921691909104601f8101859004850282018501909352828152606094859485948594859492909190830182828015610bca5780601f10610b9f57610100808354040283529160200191610bca565b820191906000526020600020905b815481529060010190602001808311610bad57829003601f168201915b50505050600160a060020a03891660009081526020818152604091829020600190810180548451600293821615610100026000190190911692909204601f8101849004840283018401909452838252949a50939250830182828015610c705780601f10610c4557610100808354040283529160200191610c70565b820191906000526020600020905b815481529060010190602001808311610c5357829003601f168201915b50505050600160a060020a038916600090815260208181526040918290206002908101805484516001821615610100026000190190911692909204601f8101849004840283018401909452838252949950939250830182828015610d155780601f10610cea57610100808354040283529160200191610d15565b820191906000526020600020905b815481529060010190602001808311610cf857829003601f168201915b50505050600160a060020a038916600090815260208181526040918290206003018054835160026001831615610100026000190190921691909104601f81018490048402820184019094528381529498509250830182828015610db95780601f10610d8e57610100808354040283529160200191610db9565b820191906000526020600020905b815481529060010190602001808311610d9c57829003601f168201915b50505050600160a060020a038916600090815260208181526040918290206004018054835160026001831615610100026000190190921691909104601f81018490048402820184019094528381529497509250830182828015610e5d5780601f10610e3257610100808354040283529160200191610e5d565b820191906000526020600020905b815481529060010190602001808311610e4057829003601f168201915b50505050600160a060020a039890981660009081526020819052604090206005015496989597509395929460ff90931692915050565b600160a060020a038216600090815260208190526040902060050154829060ff161515600114610ec257600080fd5b600160a060020a0383166000908152602081815260409091208351610a03926004909201918501906110f1565b600160a060020a038716600090815260208190526040902060050154879060ff1615610f1a57600080fd5b3360008181526020819052604090206005015460ff161515600114610f3e57600080fd5b600180548082019091557fb10e2d527612073b26eecdfd717e6a320cf44b4afac2b0732d9fcbe2b7fa0cf601805473ffffffffffffffffffffffffffffffffffffffff1916600160a060020a038b169081179091556000908152602081815260409091208951610fb0928b01906110f1565b50600160a060020a0389166000908152602081815260409091208851610fde926001909201918a01906110f1565b50600160a060020a038916600090815260208181526040909120875161100c926002909201918901906110f1565b50600160a060020a038916600090815260208181526040909120865161103a926003909201918801906110f1565b50600160a060020a0389166000908152602081815260409091208551611068926004909201918701906110f1565b505050600160a060020a03969096166000908152602081905260409020600501805460ff1916961515969096179095555050505050565b600160a060020a038216600090815260208190526040902060050154829060ff1615156001146110ce57600080fd5b600160a060020a0383166000908152602081815260409091208351610a03928501905b828054600181600116156101000203166002900490600052602060002090601f016020900481019282601f1061113257805160ff191683800117855561115f565b8280016001018555821561115f579182015b8281111561115f578251825591602001919060010190611144565b5061116b92915061116f565b5090565b610b2191905b8082111561116b576000815560010161117556fea265627a7a7231582080125b50d1055519539af908e5662ee4940f0d1365b708bc386fc313cabed4ec64736f6c63430005110032",
  "source": "pragma solidity 0.5.17;\n\nimport \"../libs/Eidas.sol\";\n\ncontract AlastriaIdentityEntity {\n\n    using Eidas for Eidas.EidasLevel;\n\n    struct IdentityEntity {  \n        string name;\n        string cif;\n        string url_logo;\n        string url_createAID;\n        string url_AOA;\n        bool active;\n    }\n\n    mapping(address => IdentityEntity) internal entities;\n    address[] listEntities;\n\n    modifier onlyIdentityEntity(address _identityEntity) {\n        require (entities[_identityEntity].active == true);\n        _;\n    }\n    \n     modifier notIdentityEntity(address _identityEntity) {\n        require (!entities[_identityEntity].active);\n        _;\n    }\n   \n    constructor () public {\n        IdentityEntity storage identityEntity = entities[msg.sender];\n\t    identityEntity.active = true;\n    }\n    \n\n    /**\n    * @dev function that allows you to add a entity to the entities mapping\n    * @param _addressEntity the address that identify the entity in the blockchain\n    * @param _name the name of the entity\n    * @param _cif the cif of the entity\n    * @param _url_logo the url that contains the logo of the entity\n    * @param _url_createAID the url that contains the alastria ID of the entity\n    * @param _url_AOA the url that contains the AOA of the entity\n    * @param _active a flag that shows if a entity is active or not\n    */ \n    function addEntity(address _addressEntity, string memory _name, string memory _cif, string memory _url_logo, string memory _url_createAID, string memory _url_AOA, bool _active) public notIdentityEntity(_addressEntity) onlyIdentityEntity(msg.sender) {\n         listEntities.push(_addressEntity);\n         entities[_addressEntity].name = _name;\n         entities[_addressEntity].cif = _cif;\n         entities[_addressEntity].url_logo = _url_logo;\n         entities[_addressEntity].url_createAID = _url_createAID;\n         entities[_addressEntity].url_AOA = _url_AOA;\n         entities[_addressEntity].active = _active;\n    }\n    \n    /**\n    * @dev function that allows you to change the name of the entity\n    * @param _addressEntity the address that identify the entity in the blockchain\n    * @param _name the new name of the entity\n    */\n    function setNameEntity(address _addressEntity, string memory _name) public onlyIdentityEntity(_addressEntity) {\n        entities[_addressEntity].name = _name;\n    }\n    \n    /**\n    * @dev function that allows you to change the CIF of the entity\n    * @param _addressEntity the address that identify the entity in the blockchain\n    * @param _cif the new cif of the entity\n    */\n    function setCifEntity(address _addressEntity, string memory _cif) public onlyIdentityEntity(_addressEntity) {\n        entities[_addressEntity].cif = _cif;\n    }\n    \n    /**\n    * @dev function that allows you to change the Url that contains the logo of the entity\n    * @param _addressEntity the address that identify the entity in the blockchain\n    * @param _url_logo the new url that contains the logo of the entity\n    */\n    function setUrlLogo(address _addressEntity, string memory _url_logo) public onlyIdentityEntity(_addressEntity) {\n        entities[_addressEntity].url_logo = _url_logo;\n    }\n    \n    /**\n    * @dev function that allows you to change the Url that contains the Alastria ID of the entity\n    * @param _addressEntity the address that identify the entity in the blockchain\n    * @param _url_createAID the new url that contains the Alastria ID of the entity\n    */\n    function setUrlCreateAID(address _addressEntity, string memory _url_createAID) public onlyIdentityEntity(_addressEntity) {\n        entities[_addressEntity].url_createAID = _url_createAID;\n    }\n    \n    /**\n    * @dev function that allows you to change the Url that contains the AOA of the entity\n    * @param _addressEntity the address that identify the entity in the blockchain\n    * @param _url_AOA the new url that contains the AOA of the entity\n    */\n    function setUrlAOA(address _addressEntity, string memory _url_AOA) public onlyIdentityEntity(_addressEntity) {\n        entities[_addressEntity].url_AOA = _url_AOA;\n    }\n\n    /**\n    * @dev function that returns all the information of a entity\n    * @param _addressEntity the address that identify the entity in the blockchain\n    * @return _name of the entity you pass to the functions as a parameter\n    * @return _cif of the entity you pass to the functions as a parameter\n    * @return _url_logo of the entity you pass to the functions as a parameter\n    * @return _url_createAID of the entity you pass to the functions as a parameter\n    * @return _url_AOA of the entity you pass to the functions as a parameter\n    * @return _active of the entity you pass to the functions as a parameter\n    */\n    function getEntity(address _addressEntity) public view returns(string memory _name, string memory _cif, string memory _url_logo, string memory _url_createAID, string memory _url_AOA, bool _active){\n        _name = entities[_addressEntity].name;\n        _cif = entities[_addressEntity].cif;\n        _url_logo = entities[_addressEntity].url_logo;\n        _url_createAID = entities[_addressEntity].url_createAID;\n        _url_AOA = entities[_addressEntity].url_AOA;\n        _active = entities[_addressEntity].active;\n    }\n    \n    /**\n    * @dev function that return the list of entities that are registered in the blockchain\n    * @return array of address of entities\n    */\n    function entitiesList() public view returns(address[] memory){\n        return listEntities;\n    } \n\n}\n",
  "sourcePath": "/Users/danielluquequintana/Github/temp-alastriaID-truffle-contracts/contracts/identityManager/AlastriaIdentityEntity.sol",
  "compiler": {
    "name": "solc",
    "version": "0.5.17+commit.d19bba13.Emscripten.clang"
  },
  "schemaVersion": "3.3.2",
  "updatedAt": "2020-12-04T09:28:21.208Z",
  "devdoc": {
    "methods": {
      "addEntity(address,string,string,string,string,string,bool)": {
        "details": "function that allows you to add a entity to the entities mapping",
        "params": {
          "_active": "a flag that shows if a entity is active or not",
          "_addressEntity": "the address that identify the entity in the blockchain",
          "_cif": "the cif of the entity",
          "_name": "the name of the entity",
          "_url_AOA": "the url that contains the AOA of the entity",
          "_url_createAID": "the url that contains the alastria ID of the entity",
          "_url_logo": "the url that contains the logo of the entity"
        }
      },
      "entitiesList()": {
        "details": "function that return the list of entities that are registered in the blockchain",
        "return": "array of address of entities"
      },
      "getEntity(address)": {
        "details": "function that returns all the information of a entity",
        "params": {
          "_addressEntity": "the address that identify the entity in the blockchain"
        },
        "return": "_name of the entity you pass to the functions as a parameter_cif of the entity you pass to the functions as a parameter_url_logo of the entity you pass to the functions as a parameter_url_createAID of the entity you pass to the functions as a parameter_url_AOA of the entity you pass to the functions as a parameter_active of the entity you pass to the functions as a parameter"
      },
      "setCifEntity(address,string)": {
        "details": "function that allows you to change the CIF of the entity",
        "params": {
          "_addressEntity": "the address that identify the entity in the blockchain",
          "_cif": "the new cif of the entity"
        }
      },
      "setNameEntity(address,string)": {
        "details": "function that allows you to change the name of the entity",
        "params": {
          "_addressEntity": "the address that identify the entity in the blockchain",
          "_name": "the new name of the entity"
        }
      },
      "setUrlAOA(address,string)": {
        "details": "function that allows you to change the Url that contains the AOA of the entity",
        "params": {
          "_addressEntity": "the address that identify the entity in the blockchain",
          "_url_AOA": "the new url that contains the AOA of the entity"
        }
      },
      "setUrlCreateAID(address,string)": {
        "details": "function that allows you to change the Url that contains the Alastria ID of the entity",
        "params": {
          "_addressEntity": "the address that identify the entity in the blockchain",
          "_url_createAID": "the new url that contains the Alastria ID of the entity"
        }
      },
      "setUrlLogo(address,string)": {
        "details": "function that allows you to change the Url that contains the logo of the entity",
        "params": {
          "_addressEntity": "the address that identify the entity in the blockchain",
          "_url_logo": "the new url that contains the logo of the entity"
        }
      }
    }
  },
  "userdoc": {
    "methods": {}
  }
}