{
  "contractName": "AlastriaIdentityManager",
  "abi": [
    {
      "anonymous": false,
      "inputs": [
        {
          "indexed": true,
          "internalType": "address",
          "name": "identity",
          "type": "address"
        },
        {
          "indexed": true,
          "internalType": "address",
          "name": "creator",
          "type": "address"
        },
        {
          "indexed": false,
          "internalType": "address",
          "name": "owner",
          "type": "address"
        }
      ],
      "name": "IdentityCreated",
      "type": "event"
    },
    {
      "anonymous": false,
      "inputs": [
        {
          "indexed": true,
          "internalType": "address",
          "name": "oldAccount",
          "type": "address"
        },
        {
          "indexed": false,
          "internalType": "address",
          "name": "newAccount",
          "type": "address"
        },
        {
          "indexed": true,
          "internalType": "address",
          "name": "serviceProvider",
          "type": "address"
        }
      ],
      "name": "IdentityRecovered",
      "type": "event"
    },
    {
      "anonymous": false,
      "inputs": [
        {
          "indexed": true,
          "internalType": "string",
          "name": "method",
          "type": "string"
        }
      ],
      "name": "OperationWasNotSupported",
      "type": "event"
    },
    {
      "anonymous": false,
      "inputs": [
        {
          "indexed": true,
          "internalType": "address",
          "name": "signAddress",
          "type": "address"
        }
      ],
      "name": "PreparedAlastriaID",
      "type": "event"
    },
    {
      "constant": false,
      "inputs": [
        {
          "internalType": "address",
          "name": "_identityIssuer",
          "type": "address"
        },
        {
          "internalType": "enum Eidas.EidasLevel",
          "name": "_level",
          "type": "uint8"
        }
      ],
      "name": "addIdentityIssuer",
      "outputs": [],
      "payable": false,
      "stateMutability": "nonpayable",
      "type": "function"
    },
    {
      "constant": false,
      "inputs": [
        {
          "internalType": "address",
          "name": "_identityServiceProvider",
          "type": "address"
        }
      ],
      "name": "addIdentityServiceProvider",
      "outputs": [],
      "payable": false,
      "stateMutability": "nonpayable",
      "type": "function"
    },
    {
      "constant": true,
      "inputs": [],
      "name": "alastriaCredentialRegistry",
      "outputs": [
        {
          "internalType": "contract AlastriaCredentialRegistry",
          "name": "",
          "type": "address"
        }
      ],
      "payable": false,
      "stateMutability": "view",
      "type": "function"
    },
    {
      "constant": true,
      "inputs": [],
      "name": "alastriaPresentationRegistry",
      "outputs": [
        {
          "internalType": "contract AlastriaPresentationRegistry",
          "name": "",
          "type": "address"
        }
      ],
      "payable": false,
      "stateMutability": "view",
      "type": "function"
    },
    {
      "constant": true,
      "inputs": [],
      "name": "alastriaPublicKeyRegistry",
      "outputs": [
        {
          "internalType": "contract AlastriaPublicKeyRegistry",
          "name": "",
          "type": "address"
        }
      ],
      "payable": false,
      "stateMutability": "view",
      "type": "function"
    },
    {
      "constant": false,
      "inputs": [
        {
          "internalType": "address",
          "name": "_identityIssuer",
          "type": "address"
        }
      ],
      "name": "deleteIdentityIssuer",
      "outputs": [],
      "payable": false,
      "stateMutability": "nonpayable",
      "type": "function"
    },
    {
      "constant": false,
      "inputs": [
        {
          "internalType": "address",
          "name": "_identityServiceProvider",
          "type": "address"
        }
      ],
      "name": "deleteIdentityServiceProvider",
      "outputs": [],
      "payable": false,
      "stateMutability": "nonpayable",
      "type": "function"
    },
    {
      "constant": true,
      "inputs": [
        {
          "internalType": "address",
          "name": "_identityIssuer",
          "type": "address"
        }
      ],
      "name": "getEidasLevel",
      "outputs": [
        {
          "internalType": "enum Eidas.EidasLevel",
          "name": "",
          "type": "uint8"
        }
      ],
      "payable": false,
      "stateMutability": "view",
      "type": "function"
    },
    {
      "constant": true,
      "inputs": [
        {
          "internalType": "address",
          "name": "",
          "type": "address"
        }
      ],
      "name": "identityKeys",
      "outputs": [
        {
          "internalType": "address",
          "name": "",
          "type": "address"
        }
      ],
      "payable": false,
      "stateMutability": "view",
      "type": "function"
    },
    {
      "constant": true,
      "inputs": [
        {
          "internalType": "address",
          "name": "_identityIssuer",
          "type": "address"
        }
      ],
      "name": "isIdentityIssuer",
      "outputs": [
        {
          "internalType": "bool",
          "name": "",
          "type": "bool"
        }
      ],
      "payable": false,
      "stateMutability": "view",
      "type": "function"
    },
    {
      "constant": true,
      "inputs": [
        {
          "internalType": "address",
          "name": "_identityServiceProvider",
          "type": "address"
        }
      ],
      "name": "isIdentityServiceProvider",
      "outputs": [
        {
          "internalType": "bool",
          "name": "",
          "type": "bool"
        }
      ],
      "payable": false,
      "stateMutability": "view",
      "type": "function"
    },
    {
      "constant": true,
      "inputs": [
        {
          "internalType": "address",
          "name": "addr",
          "type": "address"
        }
      ],
      "name": "isOwner",
      "outputs": [
        {
          "internalType": "bool",
          "name": "",
          "type": "bool"
        }
      ],
      "payable": false,
      "stateMutability": "view",
      "type": "function"
    },
    {
      "constant": true,
      "inputs": [],
      "name": "owner",
      "outputs": [
        {
          "internalType": "address",
          "name": "",
          "type": "address"
        }
      ],
      "payable": false,
      "stateMutability": "view",
      "type": "function"
    },
    {
      "constant": true,
      "inputs": [
        {
          "internalType": "address",
          "name": "",
          "type": "address"
        }
      ],
      "name": "pendingIDs",
      "outputs": [
        {
          "internalType": "uint256",
          "name": "",
          "type": "uint256"
        }
      ],
      "payable": false,
      "stateMutability": "view",
      "type": "function"
    },
    {
      "constant": false,
      "inputs": [
        {
          "internalType": "address",
          "name": "newOwner",
          "type": "address"
        }
      ],
      "name": "transfer",
      "outputs": [],
      "payable": false,
      "stateMutability": "nonpayable",
      "type": "function"
    },
    {
      "constant": false,
      "inputs": [
        {
          "internalType": "address",
          "name": "_identityIssuer",
          "type": "address"
        },
        {
          "internalType": "enum Eidas.EidasLevel",
          "name": "_level",
          "type": "uint8"
        }
      ],
      "name": "updateIdentityIssuerEidasLevel",
      "outputs": [],
      "payable": false,
      "stateMutability": "nonpayable",
      "type": "function"
    },
    {
      "constant": true,
      "inputs": [],
      "name": "version",
      "outputs": [
        {
          "internalType": "uint256",
          "name": "",
          "type": "uint256"
        }
      ],
      "payable": false,
      "stateMutability": "view",
      "type": "function"
    },
    {
      "constant": false,
      "inputs": [
        {
          "internalType": "address",
          "name": "_credentialRegistry",
          "type": "address"
        },
        {
          "internalType": "address",
          "name": "_publicKeyRegistry",
          "type": "address"
        },
        {
          "internalType": "address",
          "name": "_presentationRegistry",
          "type": "address"
        },
        {
          "internalType": "address",
          "name": "_firstIdentityWallet",
          "type": "address"
        }
      ],
      "name": "initialize",
      "outputs": [],
      "payable": false,
      "stateMutability": "nonpayable",
      "type": "function"
    },
    {
      "constant": false,
      "inputs": [
        {
          "internalType": "address",
          "name": "_signAddress",
          "type": "address"
        }
      ],
      "name": "prepareAlastriaID",
      "outputs": [],
      "payable": false,
      "stateMutability": "nonpayable",
      "type": "function"
    },
    {
      "constant": false,
      "inputs": [
        {
          "internalType": "bytes",
          "name": "addPublicKeyCallData",
          "type": "bytes"
        }
      ],
      "name": "createAlastriaIdentity",
      "outputs": [],
      "payable": false,
      "stateMutability": "nonpayable",
      "type": "function"
    },
    {
      "constant": false,
      "inputs": [
        {
          "internalType": "address",
          "name": "_destination",
          "type": "address"
        },
        {
          "internalType": "uint256",
          "name": "_value",
          "type": "uint256"
        },
        {
          "internalType": "bytes",
          "name": "_data",
          "type": "bytes"
        }
      ],
      "name": "delegateCall",
      "outputs": [],
      "payable": false,
      "stateMutability": "nonpayable",
      "type": "function"
    },
    {
      "constant": false,
      "inputs": [
        {
          "internalType": "address",
          "name": "accountLost",
          "type": "address"
        },
        {
          "internalType": "address",
          "name": "newAccount",
          "type": "address"
        }
      ],
      "name": "recoverAccount",
      "outputs": [],
      "payable": false,
      "stateMutability": "nonpayable",
      "type": "function"
    }
  ],
  "bytecode": "0x608060405261271060365560028054600160a060020a031916331790556114658061002b6000396000f3fe608060405234801561001057600080fd5b50600436106101465760003560e060020a90048063597b2e9b116100bc578063c71cbcf311610080578063c71cbcf3146104e0578063cb6915991461050e578063d024d9a414610534578063dcc30e351461055a578063f014cd4114610562578063f8c8765e1461056a57610146565b8063597b2e9b146103225780636554adf0146103dd5780636d69d99a14610403578063889776a8146104a95780638da5cb5b146104d857610146565b80632f54bf6e1161010e5780632f54bf6e1461025d5780633bf472151461029757806343eedc70146102bd57806344963610146102c557806345748b42146102f457806354fd4d501461031a57610146565b80630c91465e1461014b5780630e5a4fbb1461018d5780630ebbbffc146101d75780631a695230146101ff5780632773d0fa14610225575b600080fd5b6101716004803603602081101561016157600080fd5b5035600160a060020a03166105a8565b60408051600160a060020a039092168252519081900360200190f35b6101b3600480360360208110156101a357600080fd5b5035600160a060020a03166105c3565b604051808260048111156101c357fe5b60ff16815260200191505060405180910390f35b6101fd600480360360208110156101ed57600080fd5b5035600160a060020a03166105e1565b005b6101fd6004803603602081101561021557600080fd5b5035600160a060020a031661062e565b61024b6004803603602081101561023b57600080fd5b5035600160a060020a031661067c565b60408051918252519081900360200190f35b6102836004803603602081101561027357600080fd5b5035600160a060020a031661068e565b604080519115158252519081900360200190f35b6101fd600480360360208110156102ad57600080fd5b5035600160a060020a03166106a2565b6101716106eb565b6101fd600480360360408110156102db57600080fd5b508035600160a060020a0316906020013560ff166106fa565b6101fd6004803603602081101561030a57600080fd5b5035600160a060020a0316610800565b61024b61086f565b6101fd6004803603606081101561033857600080fd5b600160a060020a038235169160208101359181019060608101604082013564010000000081111561036857600080fd5b82018360208201111561037a57600080fd5b8035906020019184600183028401116401000000008311171561039c57600080fd5b91908080601f016020809104026020016040519081016040528093929190818152602001838380828437600092019190915250929550610875945050505050565b610283600480360360208110156103f357600080fd5b5035600160a060020a03166109a5565b6101fd6004803603602081101561041957600080fd5b81019060208101813564010000000081111561043457600080fd5b82018360208201111561044657600080fd5b8035906020019184600183028401116401000000008311171561046857600080fd5b91908080601f0160208091040260200160405190810160405280939291908181526020018383808284376000920191909152509295506109c8945050505050565b6101fd600480360360408110156104bf57600080fd5b508035600160a060020a0316906020013560ff16610b05565b610171610c45565b6101fd600480360360408110156104f657600080fd5b50600160a060020a0381358116916020013516610c54565b6101fd6004803603602081101561052457600080fd5b5035600160a060020a0316610d02565b6102836004803603602081101561054a57600080fd5b5035600160a060020a0316610d46565b610171610d64565b610171610d73565b6101fd6004803603608081101561058057600080fd5b50600160a060020a038135811691602081013582169160408201358116916060013516610d82565b603a60205260009081526040902054600160a060020a031681565b600160a060020a031660009081526001602052604090205460ff1690565b336105eb81610d46565b6105f457600080fd5b816105fe81610d46565b1561060857600080fd5b5050600160a060020a03166000908152602081905260409020805460ff19166001179055565b6106373361068e565b61064057600080fd5b600160a060020a0381163014610679576002805473ffffffffffffffffffffffffffffffffffffffff1916600160a060020a0383161790555b50565b603b6020526000908152604090205481565b600254600160a060020a0390811691161490565b806106ac81610d46565b6106b557600080fd5b336106bf81610d46565b6106c857600080fd5b5050600160a060020a03166000908152602081905260409020805460ff19169055565b603854600160a060020a031681565b8080600481111561070757fe5b73__Eidas_________________________________630fa78bf790916040518263ffffffff1660e060020a0281526004018082600481111561074557fe5b60ff16815260200191505060206040518083038186803b15801561076857600080fd5b505af415801561077c573d6000803e3d6000fd5b505050506040513d602081101561079257600080fd5b505161079d57600080fd5b33600081815260016020526040902054610100900460ff166107be57600080fd5b600160a060020a0384166000908152600160208190526040909120805490918591839160ff19909116908360048111156107f457fe5b02179055505050505050565b33600081815260016020526040902054610100900460ff1661082157600080fd5b603654600160a060020a0383166000818152603b602052604080822042909401909355915190917fb95ece7391a260096614d2b042c6cca83dcc5d131f72bc57a157ee2502e7ce5391a25050565b60355481565b336000908152603a6020526040902054600160a060020a031661089757600080fd5b336000908152603a602090815260408083205490517fd7f31eb9000000000000000000000000000000000000000000000000000000008152600160a060020a0387811660048301908152602483018890526060604484019081528751606485015287519290941695869563d7f31eb9958b958b958b95949293608490920192918601918190849084905b83811015610939578181015183820152602001610921565b50505050905090810190601f1680156109665780820380516001836020036101000a031916815260200191505b50945050505050600060405180830381600087803b15801561098757600080fd5b505af115801561099b573d6000803e3d6000fd5b5050505050505050565b600160a060020a0316600090815260016020526040902054610100900460ff1690565b33806109d357600080fd5b336000818152603b602052604090205415801590610a085750600160a060020a0381166000908152603b602052604090205442105b610a1157600080fd5b6000604051610a1f90611005565b604051809103906000f080158015610a3b573d6000803e3d6000fd5b50336000908152603a60209081526040808320805473ffffffffffffffffffffffffffffffffffffffff1916600160a060020a03868116918217909255603b845282852085905560395492517fd7f31eb90000000000000000000000000000000000000000000000000000000081529290911660048301818152602484018690526060604485019081528b5160648601528b51979850929663d7f31eb996929592948c94929360849091019190850190808383898315610939578181015183820152602001610921565b80806004811115610b1257fe5b73__Eidas_________________________________630fa78bf790916040518263ffffffff1660e060020a02815260040180826004811115610b5057fe5b60ff16815260200191505060206040518083038186803b158015610b7357600080fd5b505af4158015610b87573d6000803e3d6000fd5b505050506040513d6020811015610b9d57600080fd5b5051610ba857600080fd5b600160a060020a0383166000908152600160205260409020548390610100900460ff1615610bd557600080fd5b33600081815260016020526040902054610100900460ff16610bf657600080fd5b600160a060020a0385166000908152600160208190526040909120805490918691839160ff1990911690836004811115610c2c57fe5b0217905550805461ff0019166101001790555050505050565b600254600160a060020a031681565b33600081815260016020526040902054610100900460ff16610c7557600080fd5b600160a060020a038381166000818152603a60209081526040808320805488871680865283862080549290981673ffffffffffffffffffffffffffffffffffffffff19928316179097559385905280549093169092558151938452905133937ff5cf2e915faa705d003410f0f65cd59606d22f8e7fb7361a015d6a00b7723d9992908290030190a3505050565b33600081815260016020526040902054610100900460ff16610d2357600080fd5b50600160a060020a03166000908152600160205260409020805461ffff19169055565b600160a060020a031660009081526020819052604090205460ff1690565b603754600160a060020a031681565b603954600160a060020a031681565b6002547501000000000000000000000000000000000000000000900460ff1680610daf5750610daf610fac565b80610dd5575060025474010000000000000000000000000000000000000000900460ff16155b610e2a576040517f08c379a000000000000000000000000000000000000000000000000000000000815260040180806020018281038252602e815260200180611403602e913960400191505060405180910390fd5b6002547501000000000000000000000000000000000000000000900460ff16158015610eb9576002805474ff00000000000000000000000000000000000000001975ff0000000000000000000000000000000000000000001990911675010000000000000000000000000000000000000000001716740100000000000000000000000000000000000000001790555b60378054600160a060020a0380881673ffffffffffffffffffffffffffffffffffffffff1992831617909255603880548684169083161790556039805492871692909116919091179055604051600090610f1290611005565b604051809103906000f080158015610f2e573d6000803e3d6000fd5b50600160a060020a038481166000908152603a60205260409020805473ffffffffffffffffffffffffffffffffffffffff19169183169190911790559050610f7581610fb2565b610f7e81610fd6565b508015610fa5576002805475ff000000000000000000000000000000000000000000191690555b5050505050565b303b1590565b600160a060020a03166000908152602081905260409020805460ff19166001179055565b600160a060020a031660009081526001602052604090208054600460ff199091161761ff001916610100179055565b6103f0806110138339019056fe608060405260008054600160a060020a031916331790556103cb806100256000396000f3fe608060405234801561001057600080fd5b5060043610610068577c010000000000000000000000000000000000000000000000000000000060003504631a695230811461006d5780632f54bf6e146100955780638da5cb5b146100cf578063d7f31eb9146100f3575b600080fd5b6100936004803603602081101561008357600080fd5b5035600160a060020a03166101ae565b005b6100bb600480360360208110156100ab57600080fd5b5035600160a060020a03166101fc565b604080519115158252519081900360200190f35b6100d7610210565b60408051600160a060020a039092168252519081900360200190f35b6100936004803603606081101561010957600080fd5b600160a060020a038235169160208101359181019060608101604082013564010000000081111561013957600080fd5b82018360208201111561014b57600080fd5b8035906020019184600183028401116401000000008311171561016d57600080fd5b91908080601f01602080910402602001604051908101604052809392919081815260200183838082843760009201919091525092955061021f945050505050565b6101b7336101fc565b6101c057600080fd5b600160a060020a03811630146101f9576000805473ffffffffffffffffffffffffffffffffffffffff1916600160a060020a0383161790555b50565b600054600160a060020a0390811691161490565b600054600160a060020a031681565b610228336101fc565b61023157600080fd5b600083600160a060020a031683836040518082805190602001908083835b6020831061026e5780518252601f19909201916020918201910161024f565b6001836020036101000a03801982511681845116808217855250505050505090500191505060006040518083038185875af1925050503d80600081146102d0576040519150601f19603f3d011682016040523d82523d6000602084013e6102d5565b606091505b505080915050806102e557600080fd5b83600160a060020a03167fc1de93dfa06362c6a616cde73ec17d116c0d588dd1df70f27f91b500de207c4184846040518083815260200180602001828103825283818151815260200191508051906020019080838360005b8381101561035557818101518382015260200161033d565b50505050905090810190601f1680156103825780820380516001836020036101000a031916815260200191505b50935050505060405180910390a25050505056fea265627a7a7231582002795ae4b78c0e8595b0dd3af7c0dab9b99226680f23ef36badd86d8a7dfb3fb64736f6c63430005110032436f6e747261637420696e7374616e63652068617320616c7265616479206265656e20696e697469616c697a6564a265627a7a72315820391e4342b0062eb7fcc4e57e0711b9744181ce438ffec8c3b128af8dccffa07b64736f6c63430005110032",
  "source": "pragma solidity 0.5.17;\n\nimport \"./AlastriaIdentityServiceProvider.sol\";\nimport \"./AlastriaIdentityIssuer.sol\";\nimport \"./AlastriaProxy.sol\";\nimport \"./AlastriaIdentityEntity.sol\";\nimport \"../registry/AlastriaCredentialRegistry.sol\";\nimport \"../registry/AlastriaPresentationRegistry.sol\";\nimport \"../registry/AlastriaPublicKeyRegistry.sol\";\nimport \"../libs/Owned.sol\";\nimport \"../openzeppelin/Initializable.sol\";\n\ncontract AlastriaIdentityManager is AlastriaIdentityServiceProvider, AlastriaIdentityIssuer, Owned, Initializable {\n\n    //Variables\n    uint256 public version;\n    uint internal timeToLive = 10000;\n    AlastriaCredentialRegistry public alastriaCredentialRegistry;\n    AlastriaPresentationRegistry public alastriaPresentationRegistry;\n    AlastriaPublicKeyRegistry public alastriaPublicKeyRegistry;\n    mapping(address => address) public identityKeys; //change to alastriaID created check bool\n    mapping(address => uint) public pendingIDs;\n\n    //Events\n    event PreparedAlastriaID(address indexed signAddress);\n\n    event OperationWasNotSupported(string indexed method);\n\n    event IdentityCreated(address indexed identity, address indexed creator, address owner);\n\n    event IdentityRecovered(address indexed oldAccount, address newAccount, address indexed serviceProvider);\n\n    //Modifiers\n    modifier isPendingAndOnTime(address _signAddress) {\n        require(pendingIDs[_signAddress] > 0 && pendingIDs[_signAddress] > now);\n        _;\n    }\n\n    modifier validAddress(address addr) { //protects against some weird attacks\n        require(addr != address(0));\n        _;\n    }\n\n    //Constructor\n    function initialize (address _credentialRegistry, address _publicKeyRegistry, address _presentationRegistry, address _firstIdentityWallet) public initializer {\n        //TODO require(_version > getPreviousVersion(_previousVersion));\n        alastriaCredentialRegistry = AlastriaCredentialRegistry(_credentialRegistry);\n        alastriaPresentationRegistry = AlastriaPresentationRegistry(_presentationRegistry);\n        alastriaPublicKeyRegistry = AlastriaPublicKeyRegistry(_publicKeyRegistry);\n        AlastriaProxy identity = new AlastriaProxy();\n        identityKeys[_firstIdentityWallet] = address(identity);\n        AlastriaIdentityServiceProvider._initialize(address(identity));\n        AlastriaIdentityIssuer._initialize(address(identity));\n    }\n\n    //Methods\n    function prepareAlastriaID(address _signAddress) public onlyIdentityIssuer(msg.sender) {\n        pendingIDs[_signAddress] = now + timeToLive;\n        emit PreparedAlastriaID(_signAddress);\n    }\n\n    /// @dev Creates a new AlastriaProxy contract for an owner and recovery and allows an initial forward call which would be to set the registry in our case\n    /// @param addPublicKeyCallData of the call to addKey function in AlastriaPublicKeyRegistry from the new deployed AlastriaProxy contract\n    function createAlastriaIdentity(bytes memory addPublicKeyCallData) public validAddress(msg.sender) isPendingAndOnTime(msg.sender) {\n        AlastriaProxy identity = new AlastriaProxy();\n        identityKeys[msg.sender] = address(identity);\n        pendingIDs[msg.sender] = 0;\n        identity.forward(address(alastriaPublicKeyRegistry), 0, addPublicKeyCallData);//must be alastria registry call\n    }\n\n    /// @dev This method send a transaction trough the proxy of the sender\n    function delegateCall(address _destination, uint256 _value, bytes memory _data) public {\n        require(identityKeys[msg.sender]!=address(0));\n        AlastriaProxy identity = AlastriaProxy(address(identityKeys[msg.sender]));\n        identity.forward(_destination,_value,_data);\n    }\n\n    function recoverAccount(address accountLost, address newAccount) public onlyIdentityIssuer(msg.sender) {\n        identityKeys[newAccount] = identityKeys[accountLost];\n        identityKeys[accountLost] = address(0);\n        emit IdentityRecovered(accountLost,newAccount,msg.sender);\n    }\n}\n",
  "sourcePath": "/Users/danielluquequintana/Github/temp-alastriaID-truffle-contracts/contracts/identityManager/AlastriaIdentityManager.sol",
  "compiler": {
    "name": "solc",
    "version": "0.5.17+commit.d19bba13.Emscripten.clang"
  },
  "schemaVersion": "3.3.2",
  "updatedAt": "2020-12-04T09:28:21.213Z",
  "devdoc": {
    "methods": {
      "createAlastriaIdentity(bytes)": {
        "details": "Creates a new AlastriaProxy contract for an owner and recovery and allows an initial forward call which would be to set the registry in our case",
        "params": {
          "addPublicKeyCallData": "of the call to addKey function in AlastriaPublicKeyRegistry from the new deployed AlastriaProxy contract"
        }
      },
      "delegateCall(address,uint256,bytes)": {
        "details": "This method send a transaction trough the proxy of the sender"
      }
    }
  },
  "userdoc": {
    "methods": {}
  }
}