{
  "contractName": "AlastriaPublicKeyRegistry",
  "abi": [
    {
      "anonymous": false,
      "inputs": [
        {
          "indexed": false,
          "internalType": "string",
          "name": "publicKey",
          "type": "string"
        }
      ],
      "name": "PublicKeyDeleted",
      "type": "event"
    },
    {
      "anonymous": false,
      "inputs": [
        {
          "indexed": false,
          "internalType": "string",
          "name": "publicKey",
          "type": "string"
        }
      ],
      "name": "PublicKeyRevoked",
      "type": "event"
    },
    {
      "constant": true,
      "inputs": [],
      "name": "previousPublishedVersion",
      "outputs": [
        {
          "internalType": "address",
          "name": "",
          "type": "address"
        }
      ],
      "payable": false,
      "stateMutability": "view",
      "type": "function"
    },
    {
      "constant": true,
      "inputs": [
        {
          "internalType": "address",
          "name": "",
          "type": "address"
        },
        {
          "internalType": "uint256",
          "name": "",
          "type": "uint256"
        }
      ],
      "name": "publicKeyList",
      "outputs": [
        {
          "internalType": "string",
          "name": "",
          "type": "string"
        }
      ],
      "payable": false,
      "stateMutability": "view",
      "type": "function"
    },
    {
      "constant": true,
      "inputs": [],
      "name": "version",
      "outputs": [
        {
          "internalType": "int256",
          "name": "",
          "type": "int256"
        }
      ],
      "payable": false,
      "stateMutability": "view",
      "type": "function"
    },
    {
      "constant": false,
      "inputs": [
        {
          "internalType": "address",
          "name": "_previousPublishedVersion",
          "type": "address"
        }
      ],
      "name": "initialize",
      "outputs": [],
      "payable": false,
      "stateMutability": "nonpayable",
      "type": "function"
    },
    {
      "constant": false,
      "inputs": [
        {
          "internalType": "string",
          "name": "publicKey",
          "type": "string"
        }
      ],
      "name": "addKey",
      "outputs": [],
      "payable": false,
      "stateMutability": "nonpayable",
      "type": "function"
    },
    {
      "constant": false,
      "inputs": [
        {
          "internalType": "string",
          "name": "publicKey",
          "type": "string"
        }
      ],
      "name": "revokePublicKey",
      "outputs": [],
      "payable": false,
      "stateMutability": "nonpayable",
      "type": "function"
    },
    {
      "constant": false,
      "inputs": [
        {
          "internalType": "string",
          "name": "publicKey",
          "type": "string"
        }
      ],
      "name": "deletePublicKey",
      "outputs": [],
      "payable": false,
      "stateMutability": "nonpayable",
      "type": "function"
    },
    {
      "constant": true,
      "inputs": [
        {
          "internalType": "address",
          "name": "subject",
          "type": "address"
        }
      ],
      "name": "getCurrentPublicKey",
      "outputs": [
        {
          "internalType": "string",
          "name": "",
          "type": "string"
        }
      ],
      "payable": false,
      "stateMutability": "view",
      "type": "function"
    },
    {
      "constant": true,
      "inputs": [
        {
          "internalType": "address",
          "name": "subject",
          "type": "address"
        },
        {
          "internalType": "bytes32",
          "name": "publicKey",
          "type": "bytes32"
        }
      ],
      "name": "getPublicKeyStatus",
      "outputs": [
        {
          "internalType": "bool",
          "name": "exists",
          "type": "bool"
        },
        {
          "internalType": "enum AlastriaPublicKeyRegistry.Status",
          "name": "status",
          "type": "uint8"
        },
        {
          "internalType": "uint256",
          "name": "startDate",
          "type": "uint256"
        },
        {
          "internalType": "uint256",
          "name": "endDate",
          "type": "uint256"
        }
      ],
      "payable": false,
      "stateMutability": "view",
      "type": "function"
    }
  ],
  "bytecode": "0x608060405234801561001057600080fd5b50610b8e806100206000396000f3fe608060405234801561001057600080fd5b50600436106100b0576000357c01000000000000000000000000000000000000000000000000000000009004806354fd4d501161008357806354fd4d50146103055780636104464f1461031f578063c000ceee14610343578063c4d66de81461036f578063d16df8ec14610395576100b0565b80631226f6a5146100b557806331f7f2591461011c57806336241962146101b757806350382c1a1461025f575b600080fd5b6100e1600480360360408110156100cb57600080fd5b50600160a060020a03813516906020013561043b565b6040518415158152602081018460018111156100f957fe5b60ff16815260200183815260200182815260200194505050505060405180910390f35b6101426004803603602081101561013257600080fd5b5035600160a060020a031661049b565b6040805160208082528351818301528351919283929083019185019080838360005b8381101561017c578181015183820152602001610164565b50505050905090810190601f1680156101a95780820380516001836020036101000a031916815260200191505b509250505060405180910390f35b61025d600480360360208110156101cd57600080fd5b8101906020810181356401000000008111156101e857600080fd5b8201836020820111156101fa57600080fd5b8035906020019184600183028401116401000000008311171561021c57600080fd5b91908080601f0160208091040260200160405190810160405280939291908181526020018383808284376000920191909152509295506105aa945050505050565b005b61025d6004803603602081101561027557600080fd5b81019060208101813564010000000081111561029057600080fd5b8201836020820111156102a257600080fd5b803590602001918460018302840111640100000000831117156102c457600080fd5b91908080601f016020809104026020016040519081016040528093929190818152602001838380828437600092019190915250929550610690945050505050565b61030d6107ab565b60408051918252519081900360200190f35b6103276107b1565b60408051600160a060020a039092168252519081900360200190f35b6101426004803603604081101561035957600080fd5b50600160a060020a0381351690602001356107c0565b61025d6004803603602081101561038557600080fd5b5035600160a060020a0316610874565b61025d600480360360208110156103ab57600080fd5b8101906020810181356401000000008111156103c657600080fd5b8201836020820111156103d857600080fd5b803590602001918460018302840111640100000000831117156103fa57600080fd5b91908080601f01602080910402602001604051908101604052809392919081815260200183838082843760009201919091525092955061095d945050505050565b600080808085600160a060020a03811661045457600080fd5b50505050600160a060020a03929092166000908152603560209081526040808320938352929052208054600182015460029092015460ff8083169561010090930416935090565b606081600160a060020a0381166104b157600080fd5b600160a060020a0383166000908152603660205260409020541561059157600160a060020a0383166000908152603660205260409020805460001981019081106104f757fe5b600091825260209182902001805460408051601f60026000196101006001871615020190941693909304928301859004850281018501909152818152928301828280156105855780601f1061055a57610100808354040283529160200191610585565b820191906000526020600020905b81548152906001019060200180831161056857829003601f168201915b505050505091506105a4565b6040518060200160405280600081525091505b50919050565b336000908152603560205260408120816105c384610a15565b81526020810191909152604001600020805490915060ff161561068c57805461ff00191661010017815542600282015560408051602080825284518183015284517f590ada3b231515dd26dca05728f31024554fc0eca9ef33aa1d623bc4d7d5fd50938693928392918301919085019080838360005b83811015610651578181015183820152602001610639565b50505050905090810190601f16801561067e5780820380516001836020036101000a031916815260200191505b509250505060405180910390a15b5050565b336000908152603560205260408120906106a983610a15565b815260208101919091526040016000205460ff16156106c757600080fd5b426106d96106d43361049b565b61095d565b6040805160808101825260018152600060208083018290528284018590526060830182905233825260359052918220909161071385610a15565b81526020808201929092526040016000208251815460ff191690151517808255918301519091829061ff00191661010083600181111561074f57fe5b021790555060408281015160018084019190915560609093015160029092019190915533600090815260366020908152918120805493840180825590825290829020855191936107a59391019190860190610a93565b50505050565b60335481565b603454600160a060020a031681565b603660205281600052604060002081815481106107d957fe5b600091825260209182902001805460408051601f6002600019610100600187161502019094169390930492830185900485028101850190915281815294509092509083018282801561086c5780601f106108415761010080835404028352916020019161086c565b820191906000526020600020905b81548152906001019060200180831161084f57829003601f168201915b505050505081565b600054610100900460ff168061088d575061088d610a8c565b8061089b575060005460ff16155b6108f0576040517f08c379a000000000000000000000000000000000000000000000000000000000815260040180806020018281038252602e815260200180610b2c602e913960400191505060405180910390fd5b600054610100900460ff1615801561091b576000805460ff1961ff0019909116610100171660011790555b60046033556034805473ffffffffffffffffffffffffffffffffffffffff1916600160a060020a038416179055801561068c576000805461ff00191690555050565b3360009081526035602052604081208161097684610a15565b81526020810191909152604001600020805490915060ff1680156109af575060018154610100900460ff1660018111156109ac57fe5b14155b1561068c5742600282015560408051602080825284518183015284517f41d9cf228775966745bd16590f046aff534ab47ea15fc80127ddae02abc8bf34938693928392918301919085019080838360008315610651578181015183820152602001610639565b6000816040516020018082805190602001908083835b60208310610a4a5780518252601f199092019160209182019101610a2b565b6001836020036101000a038019825116818451168082178552505050505050905001915050604051602081830303815290604052805190602001209050919050565b303b155b90565b828054600181600116156101000203166002900490600052602060002090601f016020900481019282601f10610ad457805160ff1916838001178555610b01565b82800160010185558215610b01579182015b82811115610b01578251825591602001919060010190610ae6565b50610b0d929150610b11565b5090565b610a9091905b80821115610b0d5760008155600101610b1756fe436f6e747261637420696e7374616e63652068617320616c7265616479206265656e20696e697469616c697a6564a265627a7a72315820f30cf2217448d590d4a8257335a521eaff8097272b989edd67e98c09908912be64736f6c63430005110032",
  "source": "pragma solidity 0.5.17;\n\nimport \"../openzeppelin/Initializable.sol\";\n\n\ncontract AlastriaPublicKeyRegistry is Initializable{\n\n    // This contracts registers and makes publicly avalaible the AlastriaID Public Keys hash and status, current and past.\n\n    //To Do: Should we add RevokedBySubject Status?\n\n    //Variables\n    int public version;\n    address public previousPublishedVersion;\n\n    // Initially Valid: could only be changed to DeletedBySubject for the time being.\n    enum Status {Valid, DeletedBySubject}\n    struct PublicKey {\n        bool exists;\n        Status status; // Deleted keys shouldnt be used, not even to check previous signatures.\n        uint startDate;\n        uint endDate;\n    }\n\n    // Mapping (subject, publickey)\n    mapping(address => mapping(bytes32 => PublicKey)) private publicKeyRegistry;\n    // mapping subject => publickey\n    mapping(address => string[]) public publicKeyList;\n\n    //Events, just for revocation and deletion\n    event PublicKeyDeleted (string publicKey);\n    event PublicKeyRevoked (string publicKey);\n\n    //Modifiers\n    modifier validAddress(address addr) {//protects against some weird attacks\n        require(addr != address(0));\n        _;\n    }\n\n    function initialize(address _previousPublishedVersion) initializer public{\n        version = 4;\n        previousPublishedVersion = _previousPublishedVersion;\n    }\n\n    // Sets new key and revokes previous\n    function addKey(string memory publicKey) public {\n        require(!publicKeyRegistry[msg.sender][getKeyHash(publicKey)].exists);\n        uint changeDate = now;\n        revokePublicKey(getCurrentPublicKey(msg.sender));\n        publicKeyRegistry[msg.sender][getKeyHash(publicKey)] = PublicKey(\n            true,\n            Status.Valid,\n            changeDate,\n            0\n        );\n        publicKeyList[msg.sender].push(publicKey);\n    }\n\n    function revokePublicKey(string memory publicKey) public {\n        PublicKey storage value = publicKeyRegistry[msg.sender][getKeyHash(publicKey)];\n        // only existent no backtransition\n        if (value.exists && value.status != Status.DeletedBySubject) {\n            value.endDate = now;\n            emit PublicKeyRevoked(publicKey);\n        }\n    }\n\n    function deletePublicKey(string memory publicKey) public {\n        PublicKey storage value = publicKeyRegistry[msg.sender][getKeyHash(publicKey)];\n        // only existent\n        if (value.exists) {\n            value.status = Status.DeletedBySubject;\n            value.endDate = now;\n            emit PublicKeyDeleted(publicKey);\n        }\n    }\n\n    function getCurrentPublicKey(address subject) view public validAddress(subject) returns (string memory) {\n        if (publicKeyList[subject].length > 0) {\n            return publicKeyList[subject][publicKeyList[subject].length - 1];\n        } else {\n            return \"\";\n        }\n    }\n\n    function getPublicKeyStatus(address subject, bytes32 publicKey) view public validAddress(subject)\n        returns (bool exists, Status status, uint startDate, uint endDate){\n        PublicKey storage value = publicKeyRegistry[subject][publicKey];\n        return (value.exists, value.status, value.startDate, value.endDate);\n    }\n    \n    function getKeyHash(string memory inputKey) internal pure returns(bytes32){\n        return keccak256(abi.encodePacked(inputKey));\n    }\n\n}\n",
  "sourcePath": "/Users/danielluquequintana/Github/temp-alastriaID-truffle-contracts/contracts/registry/AlastriaPublicKeyRegistry.sol",
  "compiler": {
    "name": "solc",
    "version": "0.5.17+commit.d19bba13.Emscripten.clang"
  },
  "schemaVersion": "3.3.2",
  "updatedAt": "2020-12-04T09:28:21.237Z",
  "devdoc": {
    "methods": {}
  },
  "userdoc": {
    "methods": {}
  }
}