{
  "contractName": "AlastriaIdentityManager",
  "abi": [
    {
      "anonymous": false,
      "inputs": [
        {
          "indexed": true,
          "internalType": "address",
          "name": "identity",
          "type": "address"
        },
        {
          "indexed": true,
          "internalType": "address",
          "name": "creator",
          "type": "address"
        },
        {
          "indexed": false,
          "internalType": "address",
          "name": "owner",
          "type": "address"
        }
      ],
      "name": "IdentityCreated",
      "type": "event"
    },
    {
      "anonymous": false,
      "inputs": [
        {
          "indexed": true,
          "internalType": "address",
          "name": "oldAccount",
          "type": "address"
        },
        {
          "indexed": false,
          "internalType": "address",
          "name": "newAccount",
          "type": "address"
        },
        {
          "indexed": true,
          "internalType": "address",
          "name": "serviceProvider",
          "type": "address"
        }
      ],
      "name": "IdentityRecovered",
      "type": "event"
    },
    {
      "anonymous": false,
      "inputs": [
        {
          "indexed": true,
          "internalType": "string",
          "name": "method",
          "type": "string"
        }
      ],
      "name": "OperationWasNotSupported",
      "type": "event"
    },
    {
      "anonymous": false,
      "inputs": [
        {
          "indexed": true,
          "internalType": "address",
          "name": "signAddress",
          "type": "address"
        }
      ],
      "name": "PreparedAlastriaID",
      "type": "event"
    },
    {
      "constant": false,
      "inputs": [
        {
          "internalType": "address",
          "name": "_identityIssuer",
          "type": "address"
        },
        {
          "internalType": "enum Eidas.EidasLevel",
          "name": "_level",
          "type": "uint8"
        }
      ],
      "name": "addIdentityIssuer",
      "outputs": [],
      "payable": false,
      "stateMutability": "nonpayable",
      "type": "function"
    },
    {
      "constant": false,
      "inputs": [
        {
          "internalType": "address",
          "name": "_identityServiceProvider",
          "type": "address"
        }
      ],
      "name": "addIdentityServiceProvider",
      "outputs": [],
      "payable": false,
      "stateMutability": "nonpayable",
      "type": "function"
    },
    {
      "constant": true,
      "inputs": [],
      "name": "alastriaCredentialRegistry",
      "outputs": [
        {
          "internalType": "contract AlastriaCredentialRegistry",
          "name": "",
          "type": "address"
        }
      ],
      "payable": false,
      "stateMutability": "view",
      "type": "function"
    },
    {
      "constant": true,
      "inputs": [],
      "name": "alastriaPresentationRegistry",
      "outputs": [
        {
          "internalType": "contract AlastriaPresentationRegistry",
          "name": "",
          "type": "address"
        }
      ],
      "payable": false,
      "stateMutability": "view",
      "type": "function"
    },
    {
      "constant": true,
      "inputs": [],
      "name": "alastriaPublicKeyRegistry",
      "outputs": [
        {
          "internalType": "contract AlastriaPublicKeyRegistry",
          "name": "",
          "type": "address"
        }
      ],
      "payable": false,
      "stateMutability": "view",
      "type": "function"
    },
    {
      "constant": false,
      "inputs": [
        {
          "internalType": "address",
          "name": "_identityIssuer",
          "type": "address"
        }
      ],
      "name": "deleteIdentityIssuer",
      "outputs": [],
      "payable": false,
      "stateMutability": "nonpayable",
      "type": "function"
    },
    {
      "constant": false,
      "inputs": [
        {
          "internalType": "address",
          "name": "_identityServiceProvider",
          "type": "address"
        }
      ],
      "name": "deleteIdentityServiceProvider",
      "outputs": [],
      "payable": false,
      "stateMutability": "nonpayable",
      "type": "function"
    },
    {
      "constant": true,
      "inputs": [
        {
          "internalType": "address",
          "name": "_identityIssuer",
          "type": "address"
        }
      ],
      "name": "getEidasLevel",
      "outputs": [
        {
          "internalType": "enum Eidas.EidasLevel",
          "name": "",
          "type": "uint8"
        }
      ],
      "payable": false,
      "stateMutability": "view",
      "type": "function"
    },
    {
      "constant": true,
      "inputs": [
        {
          "internalType": "address",
          "name": "",
          "type": "address"
        }
      ],
      "name": "identityKeys",
      "outputs": [
        {
          "internalType": "address",
          "name": "",
          "type": "address"
        }
      ],
      "payable": false,
      "stateMutability": "view",
      "type": "function"
    },
    {
      "constant": true,
      "inputs": [
        {
          "internalType": "address",
          "name": "_identityIssuer",
          "type": "address"
        }
      ],
      "name": "isIdentityIssuer",
      "outputs": [
        {
          "internalType": "bool",
          "name": "",
          "type": "bool"
        }
      ],
      "payable": false,
      "stateMutability": "view",
      "type": "function"
    },
    {
      "constant": true,
      "inputs": [
        {
          "internalType": "address",
          "name": "_identityServiceProvider",
          "type": "address"
        }
      ],
      "name": "isIdentityServiceProvider",
      "outputs": [
        {
          "internalType": "bool",
          "name": "",
          "type": "bool"
        }
      ],
      "payable": false,
      "stateMutability": "view",
      "type": "function"
    },
    {
      "constant": true,
      "inputs": [
        {
          "internalType": "address",
          "name": "addr",
          "type": "address"
        }
      ],
      "name": "isOwner",
      "outputs": [
        {
          "internalType": "bool",
          "name": "",
          "type": "bool"
        }
      ],
      "payable": false,
      "stateMutability": "view",
      "type": "function"
    },
    {
      "constant": true,
      "inputs": [],
      "name": "owner",
      "outputs": [
        {
          "internalType": "address",
          "name": "",
          "type": "address"
        }
      ],
      "payable": false,
      "stateMutability": "view",
      "type": "function"
    },
    {
      "constant": true,
      "inputs": [
        {
          "internalType": "address",
          "name": "",
          "type": "address"
        }
      ],
      "name": "pendingIDs",
      "outputs": [
        {
          "internalType": "uint256",
          "name": "",
          "type": "uint256"
        }
      ],
      "payable": false,
      "stateMutability": "view",
      "type": "function"
    },
    {
      "constant": false,
      "inputs": [
        {
          "internalType": "address",
          "name": "newOwner",
          "type": "address"
        }
      ],
      "name": "transfer",
      "outputs": [],
      "payable": false,
      "stateMutability": "nonpayable",
      "type": "function"
    },
    {
      "constant": false,
      "inputs": [
        {
          "internalType": "address",
          "name": "_identityIssuer",
          "type": "address"
        },
        {
          "internalType": "enum Eidas.EidasLevel",
          "name": "_level",
          "type": "uint8"
        }
      ],
      "name": "updateIdentityIssuerEidasLevel",
      "outputs": [],
      "payable": false,
      "stateMutability": "nonpayable",
      "type": "function"
    },
    {
      "constant": true,
      "inputs": [],
      "name": "version",
      "outputs": [
        {
          "internalType": "uint256",
          "name": "",
          "type": "uint256"
        }
      ],
      "payable": false,
      "stateMutability": "view",
      "type": "function"
    },
    {
      "constant": false,
      "inputs": [
        {
          "internalType": "address",
          "name": "_credentialRegistry",
          "type": "address"
        },
        {
          "internalType": "address",
          "name": "_publicKeyRegistry",
          "type": "address"
        },
        {
          "internalType": "address",
          "name": "_presentationRegistry",
          "type": "address"
        },
        {
          "internalType": "address",
          "name": "_firstIdentityWallet",
          "type": "address"
        }
      ],
      "name": "initialize",
      "outputs": [],
      "payable": false,
      "stateMutability": "nonpayable",
      "type": "function"
    },
    {
      "constant": false,
      "inputs": [
        {
          "internalType": "address",
          "name": "_signAddress",
          "type": "address"
        }
      ],
      "name": "prepareAlastriaID",
      "outputs": [],
      "payable": false,
      "stateMutability": "nonpayable",
      "type": "function"
    },
    {
      "constant": false,
      "inputs": [
        {
          "internalType": "bytes",
          "name": "addPublicKeyCallData",
          "type": "bytes"
        }
      ],
      "name": "createAlastriaIdentity",
      "outputs": [],
      "payable": false,
      "stateMutability": "nonpayable",
      "type": "function"
    },
    {
      "constant": false,
      "inputs": [
        {
          "internalType": "address",
          "name": "_destination",
          "type": "address"
        },
        {
          "internalType": "uint256",
          "name": "_value",
          "type": "uint256"
        },
        {
          "internalType": "bytes",
          "name": "_data",
          "type": "bytes"
        }
      ],
      "name": "delegateCall",
      "outputs": [
        {
          "internalType": "bytes",
          "name": "",
          "type": "bytes"
        }
      ],
      "payable": false,
      "stateMutability": "nonpayable",
      "type": "function"
    },
    {
      "constant": false,
      "inputs": [
        {
          "internalType": "address",
          "name": "accountLost",
          "type": "address"
        },
        {
          "internalType": "address",
          "name": "newAccount",
          "type": "address"
        }
      ],
      "name": "recoverAccount",
      "outputs": [],
      "payable": false,
      "stateMutability": "nonpayable",
      "type": "function"
    }
  ],
  "bytecode": "0x608060405260028054600160a060020a031916331790556117da806100256000396000f3fe608060405234801561001057600080fd5b50600436106101465760003560e060020a90048063597b2e9b116100bc578063c71cbcf311610080578063c71cbcf314610555578063cb69159914610583578063d024d9a4146105a9578063dcc30e35146105cf578063f014cd41146105d7578063f8c8765e146105df57610146565b8063597b2e9b146103225780636554adf0146104525780636d69d99a14610478578063889776a81461051e5780638da5cb5b1461054d57610146565b80632f54bf6e1161010e5780632f54bf6e1461025d5780633bf472151461029757806343eedc70146102bd57806344963610146102c557806345748b42146102f457806354fd4d501461031a57610146565b80630c91465e1461014b5780630e5a4fbb1461018d5780630ebbbffc146101d75780631a695230146101ff5780632773d0fa14610225575b600080fd5b6101716004803603602081101561016157600080fd5b5035600160a060020a031661061d565b60408051600160a060020a039092168252519081900360200190f35b6101b3600480360360208110156101a357600080fd5b5035600160a060020a0316610638565b604051808260048111156101c357fe5b60ff16815260200191505060405180910390f35b6101fd600480360360208110156101ed57600080fd5b5035600160a060020a0316610656565b005b6101fd6004803603602081101561021557600080fd5b5035600160a060020a03166106a3565b61024b6004803603602081101561023b57600080fd5b5035600160a060020a03166106f1565b60408051918252519081900360200190f35b6102836004803603602081101561027357600080fd5b5035600160a060020a0316610703565b604080519115158252519081900360200190f35b6101fd600480360360208110156102ad57600080fd5b5035600160a060020a0316610717565b610171610760565b6101fd600480360360408110156102db57600080fd5b508035600160a060020a0316906020013560ff1661076f565b6101fd6004803603602081101561030a57600080fd5b5035600160a060020a0316610875565b61024b6108df565b6103dd6004803603606081101561033857600080fd5b600160a060020a038235169160208101359181019060608101604082013564010000000081111561036857600080fd5b82018360208201111561037a57600080fd5b8035906020019184600183028401116401000000008311171561039c57600080fd5b91908080601f0160208091040260200160405190810160405280939291908181526020018383808284376000920191909152509295506108e5945050505050565b6040805160208082528351818301528351919283929083019185019080838360005b838110156104175781810151838201526020016103ff565b50505050905090810190601f1680156104445780820380516001836020036101000a031916815260200191505b509250505060405180910390f35b6102836004803603602081101561046857600080fd5b5035600160a060020a0316610af3565b6101fd6004803603602081101561048e57600080fd5b8101906020810181356401000000008111156104a957600080fd5b8201836020820111156104bb57600080fd5b803590602001918460018302840111640100000000831117156104dd57600080fd5b91908080601f016020809104026020016040519081016040528093929190818152602001838380828437600092019190915250929550610b16945050505050565b6101fd6004803603604081101561053457600080fd5b508035600160a060020a0316906020013560ff16610d98565b610171610ed8565b6101fd6004803603604081101561056b57600080fd5b50600160a060020a0381358116916020013516610ee7565b6101fd6004803603602081101561059957600080fd5b5035600160a060020a0316610f95565b610283600480360360208110156105bf57600080fd5b5035600160a060020a0316610fd9565b610171610ff7565b610171611006565b6101fd600480360360808110156105f557600080fd5b50600160a060020a038135811691602081013582169160408201358116916060013516611015565b603960205260009081526040902054600160a060020a031681565b600160a060020a031660009081526001602052604090205460ff1690565b3361066081610fd9565b61066957600080fd5b8161067381610fd9565b1561067d57600080fd5b5050600160a060020a03166000908152602081905260409020805460ff19166001179055565b6106ac33610703565b6106b557600080fd5b600160a060020a03811630146106ee576002805473ffffffffffffffffffffffffffffffffffffffff1916600160a060020a0383161790555b50565b603a6020526000908152604090205481565b600254600160a060020a0390811691161490565b8061072181610fd9565b61072a57600080fd5b3361073481610fd9565b61073d57600080fd5b5050600160a060020a03166000908152602081905260409020805460ff19169055565b603754600160a060020a031681565b8080600481111561077c57fe5b73__Eidas_________________________________630fa78bf790916040518263ffffffff1660e060020a028152600401808260048111156107ba57fe5b60ff16815260200191505060206040518083038186803b1580156107dd57600080fd5b505af41580156107f1573d6000803e3d6000fd5b505050506040513d602081101561080757600080fd5b505161081257600080fd5b33600081815260016020526040902054610100900460ff1661083357600080fd5b600160a060020a0384166000908152600160208190526040909120805490918591839160ff199091169083600481111561086957fe5b02179055505050505050565b33600081815260016020526040902054610100900460ff1661089657600080fd5b600160a060020a0382166000818152603a602052604080822042612710019055517fb95ece7391a260096614d2b042c6cca83dcc5d131f72bc57a157ee2502e7ce539190a25050565b60355481565b33600090815260396020526040902054606090600160a060020a031661090a57600080fd5b3360009081526039602090815260408083205490517fd7f31eb9000000000000000000000000000000000000000000000000000000008152600160a060020a03888116600483019081526024830189905260606044840181815289516064860152895193909516969095879563d7f31eb9958d958d958d959094608490930192860191908190849084905b838110156109ad578181015183820152602001610995565b50505050905090810190601f1680156109da5780820380516001836020036101000a031916815260200191505b50945050505050600060405180830381600087803b1580156109fb57600080fd5b505af1158015610a0f573d6000803e3d6000fd5b505050506040513d6000823e601f3d908101601f191682016040526020811015610a3857600080fd5b8101908080516040519392919084640100000000821115610a5857600080fd5b908301906020820185811115610a6d57600080fd5b8251640100000000811182820188101715610a8757600080fd5b82525081516020918201929091019080838360005b83811015610ab4578181015183820152602001610a9c565b50505050905090810190601f168015610ae15780820380516001836020036101000a031916815260200191505b50604052509198975050505050505050565b600160a060020a0316600090815260016020526040902054610100900460ff1690565b3380610b2157600080fd5b336000818152603a602052604090205415801590610b565750600160a060020a0381166000908152603a602052604090205442105b610b5f57600080fd5b6000604051610b6d90611298565b604051809103906000f080158015610b89573d6000803e3d6000fd5b50336000908152603960209081526040808320805473ffffffffffffffffffffffffffffffffffffffff1916600160a060020a03868116918217909255603a845282852085905560385492517fd7f31eb90000000000000000000000000000000000000000000000000000000081529290911660048301818152602484018690526060604485019081528b5160648601528b51979850929663d7f31eb996929592948c94929360849091019190850190808383895b83811015610c56578181015183820152602001610c3e565b50505050905090810190601f168015610c835780820380516001836020036101000a031916815260200191505b50945050505050600060405180830381600087803b158015610ca457600080fd5b505af1158015610cb8573d6000803e3d6000fd5b505050506040513d6000823e601f3d908101601f191682016040526020811015610ce157600080fd5b8101908080516040519392919084640100000000821115610d0157600080fd5b908301906020820185811115610d1657600080fd5b8251640100000000811182820188101715610d3057600080fd5b82525081516020918201929091019080838360005b83811015610d5d578181015183820152602001610d45565b50505050905090810190601f168015610d8a5780820380516001836020036101000a031916815260200191505b506040525050505050505050565b80806004811115610da557fe5b73__Eidas_________________________________630fa78bf790916040518263ffffffff1660e060020a02815260040180826004811115610de357fe5b60ff16815260200191505060206040518083038186803b158015610e0657600080fd5b505af4158015610e1a573d6000803e3d6000fd5b505050506040513d6020811015610e3057600080fd5b5051610e3b57600080fd5b600160a060020a0383166000908152600160205260409020548390610100900460ff1615610e6857600080fd5b33600081815260016020526040902054610100900460ff16610e8957600080fd5b600160a060020a0385166000908152600160208190526040909120805490918691839160ff1990911690836004811115610ebf57fe5b0217905550805461ff0019166101001790555050505050565b600254600160a060020a031681565b33600081815260016020526040902054610100900460ff16610f0857600080fd5b600160a060020a038381166000818152603960209081526040808320805488871680865283862080549290981673ffffffffffffffffffffffffffffffffffffffff19928316179097559385905280549093169092558151938452905133937ff5cf2e915faa705d003410f0f65cd59606d22f8e7fb7361a015d6a00b7723d9992908290030190a3505050565b33600081815260016020526040902054610100900460ff16610fb657600080fd5b50600160a060020a03166000908152600160205260409020805461ffff19169055565b600160a060020a031660009081526020819052604090205460ff1690565b603654600160a060020a031681565b603854600160a060020a031681565b6002547501000000000000000000000000000000000000000000900460ff1680611042575061104261123f565b80611068575060025474010000000000000000000000000000000000000000900460ff16155b6110bd576040517f08c379a000000000000000000000000000000000000000000000000000000000815260040180806020018281038252602e815260200180611778602e913960400191505060405180910390fd5b6002547501000000000000000000000000000000000000000000900460ff1615801561114c576002805474ff00000000000000000000000000000000000000001975ff0000000000000000000000000000000000000000001990911675010000000000000000000000000000000000000000001716740100000000000000000000000000000000000000001790555b60368054600160a060020a0380881673ffffffffffffffffffffffffffffffffffffffff19928316179092556037805486841690831617905560388054928716929091169190911790556040516000906111a590611298565b604051809103906000f0801580156111c1573d6000803e3d6000fd5b50600160a060020a038481166000908152603960205260409020805473ffffffffffffffffffffffffffffffffffffffff1916918316919091179055905061120881611245565b61121181611269565b508015611238576002805475ff000000000000000000000000000000000000000000191690555b5050505050565b303b1590565b600160a060020a03166000908152602081905260409020805460ff19166001179055565b600160a060020a031660009081526001602052604090208054600460ff199091161761ff001916610100179055565b6104d2806112a68339019056fe608060405260008054600160a060020a031916331790556104ad806100256000396000f3fe608060405234801561001057600080fd5b5060043610610068577c010000000000000000000000000000000000000000000000000000000060003504631a695230811461006d5780632f54bf6e146100955780638da5cb5b146100cf578063d7f31eb9146100f3575b600080fd5b6100936004803603602081101561008357600080fd5b5035600160a060020a0316610223565b005b6100bb600480360360208110156100ab57600080fd5b5035600160a060020a0316610271565b604080519115158252519081900360200190f35b6100d7610285565b60408051600160a060020a039092168252519081900360200190f35b6101ae6004803603606081101561010957600080fd5b600160a060020a038235169160208101359181019060608101604082013564010000000081111561013957600080fd5b82018360208201111561014b57600080fd5b8035906020019184600183028401116401000000008311171561016d57600080fd5b91908080601f016020809104026020016040519081016040528093929190818152602001838380828437600092019190915250929550610294945050505050565b6040805160208082528351818301528351919283929083019185019080838360005b838110156101e85781810151838201526020016101d0565b50505050905090810190601f1680156102155780820380516001836020036101000a031916815260200191505b509250505060405180910390f35b61022c33610271565b61023557600080fd5b600160a060020a038116301461026e576000805473ffffffffffffffffffffffffffffffffffffffff1916600160a060020a0383161790555b50565b600054600160a060020a0390811691161490565b600054600160a060020a031681565b606061029f33610271565b6102a857600080fd5b6000606085600160a060020a031685856040518082805190602001908083835b602083106102e75780518252601f1990920191602091820191016102c8565b6001836020036101000a03801982511681845116808217855250505050505090500191505060006040518083038185875af1925050503d8060008114610349576040519150601f19603f3d011682016040523d82523d6000602084013e61034e565b606091505b50915091508161035d57600080fd5b85600160a060020a03167f8cd7411f6d2d65dd25e1b8e9e19f9b5b720c01622c9e25049b72837b1bbc1743868684604051808481526020018060200180602001838103835285818151815260200191508051906020019080838360005b838110156103d25781810151838201526020016103ba565b50505050905090810190601f1680156103ff5780820380516001836020036101000a031916815260200191505b50838103825284518152845160209182019186019080838360005b8381101561043257818101518382015260200161041a565b50505050905090810190601f16801561045f5780820380516001836020036101000a031916815260200191505b509550505050505060405180910390a29594505050505056fea265627a7a72315820aa357b2e80972e709e09d2094fd99ca648802343ed1ac8e10fa88f60d894a9bd64736f6c63430005110032436f6e747261637420696e7374616e63652068617320616c7265616479206265656e20696e697469616c697a6564a265627a7a723158205e98b92963fd5cce7eae59301f3fa3f0d47868c8f7bfe0ed5c0d6788c75be37964736f6c63430005110032",
  "source": "pragma solidity 0.5.17;\n\nimport \"./AlastriaIdentityServiceProvider.sol\";\nimport \"./AlastriaIdentityIssuer.sol\";\nimport \"./AlastriaProxy.sol\";\nimport \"./AlastriaIdentityEntity.sol\";\nimport \"../registry/AlastriaCredentialRegistry.sol\";\nimport \"../registry/AlastriaPresentationRegistry.sol\";\nimport \"../registry/AlastriaPublicKeyRegistry.sol\";\nimport \"../libs/Owned.sol\";\nimport \"../openzeppelin/Initializable.sol\";\n\ncontract AlastriaIdentityManager is AlastriaIdentityServiceProvider, AlastriaIdentityIssuer, Owned, Initializable {\n\n    //Variables\n    uint256 public version;\n    uint256 constant internal timeToLive = 10000;\n    AlastriaCredentialRegistry public alastriaCredentialRegistry;\n    AlastriaPresentationRegistry public alastriaPresentationRegistry;\n    AlastriaPublicKeyRegistry public alastriaPublicKeyRegistry;\n    mapping(address => address) public identityKeys; //change to alastriaID created check bool\n    mapping(address => uint) public pendingIDs;\n\n    //Events\n    event PreparedAlastriaID(address indexed signAddress);\n\n    event OperationWasNotSupported(string indexed method);\n\n    event IdentityCreated(address indexed identity, address indexed creator, address owner);\n\n    event IdentityRecovered(address indexed oldAccount, address newAccount, address indexed serviceProvider);\n\n    //Modifiers\n    modifier isPendingAndOnTime(address _signAddress) {\n        require(pendingIDs[_signAddress] > 0 && pendingIDs[_signAddress] > block.timestamp);\n        _;\n    }\n\n    modifier validAddress(address addr) { //protects against some weird attacks\n        require(addr != address(0));\n        _;\n    }\n\n    //Constructor\n    function initialize (address _credentialRegistry, address _publicKeyRegistry, address _presentationRegistry, address _firstIdentityWallet) public initializer {\n        //TODO require(_version > getPreviousVersion(_previousVersion));\n        alastriaCredentialRegistry = AlastriaCredentialRegistry(_credentialRegistry);\n        alastriaPresentationRegistry = AlastriaPresentationRegistry(_presentationRegistry);\n        alastriaPublicKeyRegistry = AlastriaPublicKeyRegistry(_publicKeyRegistry);\n        AlastriaProxy identity = new AlastriaProxy();\n        identityKeys[_firstIdentityWallet] = address(identity);\n        AlastriaIdentityServiceProvider._initialize(address(identity));\n        AlastriaIdentityIssuer._initialize(address(identity));\n    }\n\n    //Methods\n    function prepareAlastriaID(address _signAddress) public onlyIdentityIssuer(msg.sender) {\n        pendingIDs[_signAddress] = block.timestamp + timeToLive;\n        emit PreparedAlastriaID(_signAddress);\n    }\n\n    /// @dev Creates a new AlastriaProxy contract for an owner and recovery and allows an initial forward call which would be to set the registry in our case\n    /// @param addPublicKeyCallData of the call to addKey function in AlastriaPublicKeyRegistry from the new deployed AlastriaProxy contract\n    function createAlastriaIdentity(bytes memory addPublicKeyCallData) public validAddress(msg.sender) isPendingAndOnTime(msg.sender) {\n        AlastriaProxy identity = new AlastriaProxy();\n        identityKeys[msg.sender] = address(identity);\n        pendingIDs[msg.sender] = 0;\n        identity.forward(address(alastriaPublicKeyRegistry), 0, addPublicKeyCallData);//must be alastria registry call\n    }\n\n    /// @dev This method send a transaction trough the proxy of the sender\n    function delegateCall(\n        address _destination,\n        uint256 _value,\n        bytes memory _data\n    ) public returns(bytes memory) {\n        require(identityKeys[msg.sender] != address(0));\n        AlastriaProxy identity = AlastriaProxy(address(identityKeys[msg.sender]));\n        bytes memory result = identity.forward(_destination, _value, _data);\n        return result;\n    }\n\n    function recoverAccount(address accountLost, address newAccount) public onlyIdentityIssuer(msg.sender) {\n        identityKeys[newAccount] = identityKeys[accountLost];\n        identityKeys[accountLost] = address(0);\n        emit IdentityRecovered(accountLost,newAccount,msg.sender);\n    }\n}\n",
  "sourcePath": "/home/anthares101/Proyectos/temp-alastriaID-truffle-contracts/contracts/identityManager/AlastriaIdentityManager.sol",
  "compiler": {
    "name": "solc",
    "version": "0.5.17+commit.d19bba13.Emscripten.clang"
  },
  "schemaVersion": "3.3.2",
  "updatedAt": "2021-04-12T12:20:20.334Z",
  "devdoc": {
    "methods": {
      "createAlastriaIdentity(bytes)": {
        "details": "Creates a new AlastriaProxy contract for an owner and recovery and allows an initial forward call which would be to set the registry in our case",
        "params": {
          "addPublicKeyCallData": "of the call to addKey function in AlastriaPublicKeyRegistry from the new deployed AlastriaProxy contract"
        }
      },
      "delegateCall(address,uint256,bytes)": {
        "details": "This method send a transaction trough the proxy of the sender"
      }
    }
  },
  "userdoc": {
    "methods": {}
  }
}