{
  "contractName": "AlastriaCredentialRegistry",
  "abi": [
    {
      "anonymous": false,
      "inputs": [
        {
          "indexed": false,
          "internalType": "bytes32",
          "name": "issuerCredentialHash",
          "type": "bytes32"
        },
        {
          "indexed": false,
          "internalType": "enum AlastriaCredentialRegistry.Status",
          "name": "status",
          "type": "uint8"
        }
      ],
      "name": "IssuerCredentialRevoked",
      "type": "event"
    },
    {
      "anonymous": false,
      "inputs": [
        {
          "indexed": false,
          "internalType": "bytes32",
          "name": "subjectCredentialHash",
          "type": "bytes32"
        }
      ],
      "name": "SubjectCredentialDeleted",
      "type": "event"
    },
    {
      "constant": true,
      "inputs": [
        {
          "internalType": "address",
          "name": "",
          "type": "address"
        },
        {
          "internalType": "uint256",
          "name": "",
          "type": "uint256"
        }
      ],
      "name": "issuerCredentialList",
      "outputs": [
        {
          "internalType": "bytes32",
          "name": "",
          "type": "bytes32"
        }
      ],
      "payable": false,
      "stateMutability": "view",
      "type": "function"
    },
    {
      "constant": true,
      "inputs": [],
      "name": "previousPublishedVersion",
      "outputs": [
        {
          "internalType": "address",
          "name": "",
          "type": "address"
        }
      ],
      "payable": false,
      "stateMutability": "view",
      "type": "function"
    },
    {
      "constant": true,
      "inputs": [
        {
          "internalType": "address",
          "name": "",
          "type": "address"
        },
        {
          "internalType": "uint256",
          "name": "",
          "type": "uint256"
        }
      ],
      "name": "subjectCredentialList",
      "outputs": [
        {
          "internalType": "bytes32",
          "name": "",
          "type": "bytes32"
        }
      ],
      "payable": false,
      "stateMutability": "view",
      "type": "function"
    },
    {
      "constant": true,
      "inputs": [
        {
          "internalType": "address",
          "name": "",
          "type": "address"
        },
        {
          "internalType": "bytes32",
          "name": "",
          "type": "bytes32"
        }
      ],
      "name": "subjectCredentialRegistry",
      "outputs": [
        {
          "internalType": "bool",
          "name": "exists",
          "type": "bool"
        },
        {
          "internalType": "enum AlastriaCredentialRegistry.Status",
          "name": "status",
          "type": "uint8"
        },
        {
          "internalType": "string",
          "name": "URI",
          "type": "string"
        }
      ],
      "payable": false,
      "stateMutability": "view",
      "type": "function"
    },
    {
      "constant": true,
      "inputs": [],
      "name": "version",
      "outputs": [
        {
          "internalType": "int256",
          "name": "",
          "type": "int256"
        }
      ],
      "payable": false,
      "stateMutability": "view",
      "type": "function"
    },
    {
      "constant": false,
      "inputs": [
        {
          "internalType": "address",
          "name": "_previousPublishedVersion",
          "type": "address"
        }
      ],
      "name": "initialize",
      "outputs": [],
      "payable": false,
      "stateMutability": "nonpayable",
      "type": "function"
    },
    {
      "constant": false,
      "inputs": [
        {
          "internalType": "bytes32",
          "name": "subjectCredentialHash",
          "type": "bytes32"
        },
        {
          "internalType": "string",
          "name": "URI",
          "type": "string"
        }
      ],
      "name": "addSubjectCredential",
      "outputs": [],
      "payable": false,
      "stateMutability": "nonpayable",
      "type": "function"
    },
    {
      "constant": false,
      "inputs": [
        {
          "internalType": "bytes32",
          "name": "issuerCredentialHash",
          "type": "bytes32"
        }
      ],
      "name": "addIssuerCredential",
      "outputs": [],
      "payable": false,
      "stateMutability": "nonpayable",
      "type": "function"
    },
    {
      "constant": false,
      "inputs": [
        {
          "internalType": "bytes32",
          "name": "subjectCredentialHash",
          "type": "bytes32"
        }
      ],
      "name": "deleteSubjectCredential",
      "outputs": [],
      "payable": false,
      "stateMutability": "nonpayable",
      "type": "function"
    },
    {
      "constant": true,
      "inputs": [
        {
          "internalType": "address",
          "name": "subject",
          "type": "address"
        },
        {
          "internalType": "bytes32",
          "name": "subjectCredentialHash",
          "type": "bytes32"
        }
      ],
      "name": "getSubjectCredentialStatus",
      "outputs": [
        {
          "internalType": "bool",
          "name": "exists",
          "type": "bool"
        },
        {
          "internalType": "enum AlastriaCredentialRegistry.Status",
          "name": "status",
          "type": "uint8"
        }
      ],
      "payable": false,
      "stateMutability": "view",
      "type": "function"
    },
    {
      "constant": true,
      "inputs": [
        {
          "internalType": "address",
          "name": "subject",
          "type": "address"
        }
      ],
      "name": "getSubjectCredentialList",
      "outputs": [
        {
          "internalType": "uint256",
          "name": "",
          "type": "uint256"
        },
        {
          "internalType": "bytes32[]",
          "name": "",
          "type": "bytes32[]"
        }
      ],
      "payable": false,
      "stateMutability": "view",
      "type": "function"
    },
    {
      "constant": false,
      "inputs": [
        {
          "internalType": "bytes32",
          "name": "issuerCredentialHash",
          "type": "bytes32"
        },
        {
          "internalType": "enum AlastriaCredentialRegistry.Status",
          "name": "status",
          "type": "uint8"
        }
      ],
      "name": "updateCredentialStatus",
      "outputs": [],
      "payable": false,
      "stateMutability": "nonpayable",
      "type": "function"
    },
    {
      "constant": true,
      "inputs": [
        {
          "internalType": "address",
          "name": "issuer",
          "type": "address"
        },
        {
          "internalType": "bytes32",
          "name": "issuerCredentialHash",
          "type": "bytes32"
        }
      ],
      "name": "getIssuerCredentialStatus",
      "outputs": [
        {
          "internalType": "bool",
          "name": "exists",
          "type": "bool"
        },
        {
          "internalType": "enum AlastriaCredentialRegistry.Status",
          "name": "status",
          "type": "uint8"
        }
      ],
      "payable": false,
      "stateMutability": "view",
      "type": "function"
    },
    {
      "constant": true,
      "inputs": [
        {
          "internalType": "enum AlastriaCredentialRegistry.Status",
          "name": "subjectStatus",
          "type": "uint8"
        },
        {
          "internalType": "enum AlastriaCredentialRegistry.Status",
          "name": "issuerStatus",
          "type": "uint8"
        }
      ],
      "name": "getCredentialStatus",
      "outputs": [
        {
          "internalType": "enum AlastriaCredentialRegistry.Status",
          "name": "",
          "type": "uint8"
        }
      ],
      "payable": false,
      "stateMutability": "pure",
      "type": "function"
    }
  ],
  "bytecode": "0x608060405234801561001057600080fd5b50610cb8806100206000396000f3fe608060405234801561001057600080fd5b5060043610610107576000357c010000000000000000000000000000000000000000000000000000000090048063aeda232a116100a9578063dc11e39b11610083578063dc11e39b146103de578063dd517e10146103fb578063dff9a1a914610421578063e04ce02c1461043e57610107565b8063aeda232a1461035e578063c43f6b361461038a578063c4d66de8146103b657610107565b806355d64732116100e557806355d64732146101d35780635faf7d941461022c5780636104464f146102785780636792223d1461029c57610107565b806341e61ff81461010c5780634510b1cb1461014a57806354fd4d50146101cb575b600080fd5b6101386004803603604081101561012257600080fd5b50600160a060020a0381351690602001356104eb565b60408051918252519081900360200190f35b6101706004803603602081101561016057600080fd5b5035600160a060020a0316610519565b6040518083815260200180602001828103825283818151815260200191508051906020019060200280838360005b838110156101b657818101518382015260200161019e565b50505050905001935050505060405180910390f35b61013861058e565b6101ff600480360360408110156101e957600080fd5b50600160a060020a038135169060200135610594565b60405182151581526020810182600381111561021757fe5b60ff1681526020019250505060405180910390f35b6102546004803603604081101561024257600080fd5b5060ff813581169160200135166105e3565b6040518082600381111561026457fe5b60ff16815260200191505060405180910390f35b610280610679565b60408051600160a060020a039092168252519081900360200190f35b6102c8600480360360408110156102b257600080fd5b50600160a060020a038135169060200135610688565b6040518315158152602081018360038111156102e057fe5b60ff16815260200180602001828103825283818151815260200191508051906020019080838360005b83811015610321578181015183820152602001610309565b50505050905090810190601f16801561034e5780820380516001836020036101000a031916815260200191505b5094505050505060405180910390f35b6101ff6004803603604081101561037457600080fd5b50600160a060020a038135169060200135610741565b610138600480360360408110156103a057600080fd5b50600160a060020a038135169060200135610790565b6103dc600480360360208110156103cc57600080fd5b5035600160a060020a03166107a9565b005b6103dc600480360360208110156103f457600080fd5b5035610893565b6103dc6004803603604081101561041157600080fd5b508035906020013560ff16610942565b6103dc6004803603602081101561043757600080fd5b5035610a5c565b6103dc6004803603604081101561045457600080fd5b8135919081019060408101602082013564010000000081111561047657600080fd5b82018360208201111561048857600080fd5b803590602001918460018302840111640100000000831117156104aa57600080fd5b91908080601f016020809104026020016040519081016040528093929190818152602001838380828437600092019190915250929550610ae5945050505050565b6038602052816000526040600020818154811061050457fe5b90600052602060002001600091509150505481565b600160a060020a038116600090815260366020908152604080832080548251818502810185019093528083526060939092908290849083018282801561057e57602002820191906000526020600020905b81548152602001906001019080831161056a575b5050505050905091509150915091565b60335481565b60008083600160a060020a0381166105ab57600080fd5b505050600160a060020a03919091166000908152603560209081526040808320938352929052205460ff808216926101009092041690565b600082818160038111156105f357fe5b1015801561060d5750600381600381111561060a57fe5b11155b61061657600080fd5b82600081600381111561062557fe5b1015801561063f5750600381600381111561063c57fe5b11155b61064857600080fd5b83600381111561065457fe5b85600381111561066057fe5b1061066d57849250610671565b8392505b505092915050565b603454600160a060020a031681565b6035602090815260009283526040808420825291835291819020805460018083018054855160026101009483161585026000190190921691909104601f810188900488028201880190965285815260ff80851697939094049093169490918301828280156107375780601f1061070c57610100808354040283529160200191610737565b820191906000526020600020905b81548152906001019060200180831161071a57829003601f168201915b5050505050905083565b60008083600160a060020a03811661075857600080fd5b505050600160a060020a03919091166000908152603760209081526040808320938352929052205460ff808216926101009092041690565b6036602052816000526040600020818154811061050457fe5b600054610100900460ff16806107c257506107c2610bb6565b806107d0575060005460ff16155b610825576040517f08c379a000000000000000000000000000000000000000000000000000000000815260040180806020018281038252602e815260200180610c56602e913960400191505060405180910390fd5b600054610100900460ff16158015610850576000805460ff1961ff0019909116610100171660011790555b60036033556034805473ffffffffffffffffffffffffffffffffffffffff1916600160a060020a038416179055801561088f576000805461ff00191690555b5050565b33600090815260376020908152604080832084845290915290205460ff16156108bb57600080fd5b6040805180820190915260018152602081016000905233600090815260376020908152604080832085845282529091208251815460ff191690151517808255918301519091829061ff00191661010083600381111561091657fe5b021790555050336000908152603860209081526040822080546001810182559083529120019190915550565b80600081600381111561095157fe5b1015801561096b5750600381600381111561096857fe5b11155b61097457600080fd5b33600090815260376020908152604080832086845290915290208054610100900460ff1660038111156109a357fe5b8360038111156109af57fe5b1115610a565760018360038111156109c357fe5b14806109da575060028360038111156109d857fe5b145b15610a5657805460ff19166001178082558390829061ff001916610100836003811115610a0357fe5b02179055507f0bc6eed115cb12ced57d22ce88a4be72a3b052cf01e5a1947a1f901f8ff26b1a848460405180838152602001826003811115610a4157fe5b60ff1681526020019250505060405180910390a15b50505050565b3360009081526035602090815260408083208484529091529020805460ff168015610a9c575060038154610100900460ff166003811115610a9957fe5b14155b1561088f57805461ff0019166103001781556040805183815290517fc83f14fb22d6787113e4b492b1b27daac6284e516a3c61d454359fd426d04c299181900360200190a15050565b33600090815260356020908152604080832085845290915290205460ff1615610b0d57600080fd5b60408051606081019091526001815260208101600081526020908101839052336000908152603582526040808220868352835290208251815460ff191690151517808255918301519091829061ff001916610100836003811115610b6d57fe5b021790555060408201518051610b8d916001840191602090910190610bbd565b505033600090815260366020908152604082208054600181018255908352912001929092555050565b303b155b90565b828054600181600116156101000203166002900490600052602060002090601f016020900481019282601f10610bfe57805160ff1916838001178555610c2b565b82800160010185558215610c2b579182015b82811115610c2b578251825591602001919060010190610c10565b50610c37929150610c3b565b5090565b610bba91905b80821115610c375760008155600101610c4156fe436f6e747261637420696e7374616e63652068617320616c7265616479206265656e20696e697469616c697a6564a265627a7a72315820b463c31f328c19b4423c07b66a5c4dc349ff6dd13643247672d37af8cd6b8ec164736f6c63430005110032",
  "source": "pragma solidity 0.5.17;\n\nimport \"../openzeppelin/Initializable.sol\";\n\ncontract AlastriaCredentialRegistry is Initializable {\n\n    // SubjectCredential are registered under Hash(Credential) in a (subject, hash) mapping\n    // IssuerCredentials are registered under Hash (Credentials + SubjectCredentialSignature) in a (issuer, hash) mapping\n    // A List of Subject credential hashes is gathered in a (subject) mapping\n    // To Think About: Make a unique Credential struct and just one mapping subjectCredentialRegistry instead one for subjects and one for issuers\n    // To Do: Return credential URI. Should only be available to Subject. Mainly as a backup or main index when there are more than one device.\n    // Could be done from credential mapping in another get function only for subject\n    // or in getSubjectCredentialList (changing URI from one mapping to the other)\n    // To Do: make AlastriaCredentialRegistry similar to AlastriaClaimRegistry.\n\n    // Variables\n    int public version;\n    address public previousPublishedVersion;\n\n    // SubjectCredential: Initially Valid: Only DeletedBySubject\n    // IssuerCredentials: Initially Valid: Only AskIssuer or Revoked, no backwards transitions.\n    enum Status {Valid, AskIssuer, Revoked, DeletedBySubject}\n    Status constant STATUS_FIRST = Status.Valid;\n    Status constant STATUS_LAST = Status.DeletedBySubject;\n\n    struct SubjectCredential {\n        bool exists;\n        Status status;\n        string URI;\n    }\n\n    // Mapping subject, hash (JSON credential)\n    mapping(address => mapping(bytes32 => SubjectCredential)) public subjectCredentialRegistry;\n    mapping(address => bytes32[]) public subjectCredentialList;\n\n    struct IssuerCredential {\n        bool exists;\n        Status status;\n    }\n\n    // Mapping issuer, hash (JSON credential + CredentialSignature)\n    mapping(address => mapping(bytes32 => IssuerCredential)) private issuerCredentialRegistry;\n    mapping(address => bytes32[]) public issuerCredentialList;\n\n    // Events. Just for changes, not for initial set\n    event SubjectCredentialDeleted (bytes32 subjectCredentialHash);\n    event IssuerCredentialRevoked (bytes32 issuerCredentialHash, Status status);\n\n    //Modifiers\n    modifier validAddress(address addr) {//protects against some weird attacks\n        require(addr != address(0));\n        _;\n    }\n\n    modifier validStatus (Status status) { // solidity currently check on use not at function call\n        require (status >= STATUS_FIRST && status <= STATUS_LAST);\n        _;\n    }\n\n    // Functions\n    // Constructor\n    function initialize(address _previousPublishedVersion) public initializer {\n        version = 3;\n        previousPublishedVersion = _previousPublishedVersion;\n    }\n\n    function addSubjectCredential(bytes32 subjectCredentialHash, string memory URI) public {\n        require(!subjectCredentialRegistry[msg.sender][subjectCredentialHash].exists);\n        subjectCredentialRegistry[msg.sender][subjectCredentialHash] = SubjectCredential(true, Status.Valid, URI);\n        subjectCredentialList[msg.sender].push(subjectCredentialHash);\n    }\n\n    function addIssuerCredential(bytes32 issuerCredentialHash) public {\n        require(!issuerCredentialRegistry[msg.sender][issuerCredentialHash].exists);\n        issuerCredentialRegistry[msg.sender][issuerCredentialHash] = IssuerCredential(true, Status.Valid);\n        issuerCredentialList[msg.sender].push(issuerCredentialHash);\n    }\n\n    function deleteSubjectCredential(bytes32 subjectCredentialHash) public {\n        SubjectCredential storage value = subjectCredentialRegistry[msg.sender][subjectCredentialHash];\n        // only existent\n        if (value.exists && value.status != Status.DeletedBySubject) {\n            value.status = Status.DeletedBySubject;\n            emit SubjectCredentialDeleted(subjectCredentialHash);\n        }\n    }\n\n    // If the credential does not exists the return is a void credential\n    // If we want a log, should we add an event?\n    function getSubjectCredentialStatus(address subject, bytes32 subjectCredentialHash) view public validAddress(subject) returns (bool exists, Status status) {\n        SubjectCredential storage value = subjectCredentialRegistry[subject][subjectCredentialHash];\n        return (value.exists, value.status);\n    }\n\n    function getSubjectCredentialList(address subject) public view returns (uint, bytes32[] memory) {\n        return (subjectCredentialList[subject].length, subjectCredentialList[subject]);\n    }\n\n    function updateCredentialStatus(bytes32 issuerCredentialHash, Status status) validStatus (status) public {\n        IssuerCredential storage value = issuerCredentialRegistry[msg.sender][issuerCredentialHash];\n        // No backward transition, only AskIssuer or Revoked\n        if (status > value.status) {\n            if (status == Status.AskIssuer || status == Status.Revoked) {\n                value.exists = true;\n                value.status = status;\n                emit IssuerCredentialRevoked(issuerCredentialHash, status);\n            }\n        }\n    }\n\n    // If the credential does not exists the return is a void credential\n    // If we want a log, should we add an event?\n    function getIssuerCredentialStatus(address issuer, bytes32 issuerCredentialHash) view public validAddress(issuer) returns (bool exists, Status status) {\n        IssuerCredential storage value = issuerCredentialRegistry[issuer][issuerCredentialHash];\n        return (value.exists, value.status);\n    }\n\n    // Utility function\n    // Defining three status functions avoid linking the subject to the issuer or the corresponding hashes\n    function getCredentialStatus(Status subjectStatus, Status issuerStatus) pure public validStatus(subjectStatus) validStatus(issuerStatus) returns (Status){\n        if (subjectStatus >= issuerStatus) {\n            return subjectStatus;\n        } else {\n            return issuerStatus;\n        }\n    }\n}\n",
  "sourcePath": "/home/anthares101/Proyectos/temp-alastriaID-truffle-contracts/contracts/registry/AlastriaCredentialRegistry.sol",
  "compiler": {
    "name": "solc",
    "version": "0.5.17+commit.d19bba13.Emscripten.clang"
  },
  "schemaVersion": "3.3.2",
  "updatedAt": "2021-04-12T12:20:20.343Z",
  "devdoc": {
    "methods": {}
  },
  "userdoc": {
    "methods": {}
  }
}