{
  "contractName": "AlastriaIdentityIssuer",
  "abi": [
    {
      "constant": false,
      "inputs": [
        {
          "internalType": "address",
          "name": "_identityIssuer",
          "type": "address"
        },
        {
          "internalType": "enum Eidas.EidasLevel",
          "name": "_level",
          "type": "uint8"
        }
      ],
      "name": "addIdentityIssuer",
      "outputs": [],
      "payable": false,
      "stateMutability": "nonpayable",
      "type": "function"
    },
    {
      "constant": false,
      "inputs": [
        {
          "internalType": "address",
          "name": "_identityIssuer",
          "type": "address"
        },
        {
          "internalType": "enum Eidas.EidasLevel",
          "name": "_level",
          "type": "uint8"
        }
      ],
      "name": "updateIdentityIssuerEidasLevel",
      "outputs": [],
      "payable": false,
      "stateMutability": "nonpayable",
      "type": "function"
    },
    {
      "constant": false,
      "inputs": [
        {
          "internalType": "address",
          "name": "_identityIssuer",
          "type": "address"
        }
      ],
      "name": "deleteIdentityIssuer",
      "outputs": [],
      "payable": false,
      "stateMutability": "nonpayable",
      "type": "function"
    },
    {
      "constant": true,
      "inputs": [
        {
          "internalType": "address",
          "name": "_identityIssuer",
          "type": "address"
        }
      ],
      "name": "getEidasLevel",
      "outputs": [
        {
          "internalType": "enum Eidas.EidasLevel",
          "name": "",
          "type": "uint8"
        }
      ],
      "payable": false,
      "stateMutability": "view",
      "type": "function"
    },
    {
      "constant": true,
      "inputs": [
        {
          "internalType": "address",
          "name": "_identityIssuer",
          "type": "address"
        }
      ],
      "name": "isIdentityIssuer",
      "outputs": [
        {
          "internalType": "bool",
          "name": "",
          "type": "bool"
        }
      ],
      "payable": false,
      "stateMutability": "view",
      "type": "function"
    }
  ],
  "bytecode": "0x608060405234801561001057600080fd5b5061045d806100206000396000f3fe608060405234801561001057600080fd5b506004361061005a5760e060020a60003504630e5a4fbb811461005f57806344963610146100a95780636554adf0146100da578063889776a814610114578063cb69159914610143575b600080fd5b6100856004803603602081101561007557600080fd5b5035600160a060020a0316610169565b6040518082600481111561009557fe5b60ff16815260200191505060405180910390f35b6100d8600480360360408110156100bf57600080fd5b508035600160a060020a0316906020013560ff16610187565b005b610100600480360360208110156100f057600080fd5b5035600160a060020a0316610287565b604080519115158252519081900360200190f35b6100d86004803603604081101561012a57600080fd5b508035600160a060020a0316906020013560ff166102aa565b6100d86004803603602081101561015957600080fd5b5035600160a060020a03166103e4565b600160a060020a031660009081526020819052604090205460ff1690565b8080600481111561019457fe5b73__Eidas_________________________________630fa78bf790916040518263ffffffff1660e060020a028152600401808260048111156101d257fe5b60ff16815260200191505060206040518083038186803b1580156101f557600080fd5b505af4158015610209573d6000803e3d6000fd5b505050506040513d602081101561021f57600080fd5b505161022a57600080fd5b33600081815260208190526040902054610100900460ff1661024b57600080fd5b600160a060020a038416600090815260208190526040902080548490829060ff1916600183600481111561027b57fe5b02179055505050505050565b600160a060020a0316600090815260208190526040902054610100900460ff1690565b808060048111156102b757fe5b73__Eidas_________________________________630fa78bf790916040518263ffffffff1660e060020a028152600401808260048111156102f557fe5b60ff16815260200191505060206040518083038186803b15801561031857600080fd5b505af415801561032c573d6000803e3d6000fd5b505050506040513d602081101561034257600080fd5b505161034d57600080fd5b600160a060020a0383166000908152602081905260409020548390610100900460ff161561037a57600080fd5b33600081815260208190526040902054610100900460ff1661039b57600080fd5b600160a060020a038516600090815260208190526040902080548590829060ff191660018360048111156103cb57fe5b0217905550805461ff0019166101001790555050505050565b33600081815260208190526040902054610100900460ff1661040557600080fd5b50600160a060020a03166000908152602081905260409020805461ffff1916905556fea265627a7a72315820186441b1a436d19ac44562d1c6460102055ae23d03e0a43c9430b7815f5af51664736f6c63430005110032",
  "source": "pragma solidity 0.5.17;\n\nimport \"../libs/Eidas.sol\";\n\ncontract AlastriaIdentityIssuer {\n\n    using Eidas for Eidas.EidasLevel;\n\n    struct IdentityIssuer {\n        Eidas.EidasLevel level;\n        bool active;\n    }\n\n    mapping(address => IdentityIssuer) internal issuers;\n\n    modifier onlyIdentityIssuer(address _identityIssuer) {\n        require (issuers[_identityIssuer].active);\n        _;\n    }\n\n    modifier notIdentityIssuer(address _identityIssuer) {\n        require (!issuers[_identityIssuer].active);\n        _;\n    }\n\n    modifier alLeastLow(Eidas.EidasLevel _level) {\n        require (_level.atLeastLow());\n        _;\n    }\n\n    function _initialize(address _firstIdentity) internal {\n\t    IdentityIssuer storage identityIssuer = issuers[_firstIdentity];\n        identityIssuer.level = Eidas.EidasLevel.High;\n        identityIssuer.active = true;\n    }\n\n    function addIdentityIssuer(address _identityIssuer, Eidas.EidasLevel _level) public alLeastLow(_level) notIdentityIssuer(_identityIssuer) onlyIdentityIssuer(msg.sender) {\n        IdentityIssuer storage identityIssuer = issuers[_identityIssuer];\n        identityIssuer.level = _level;\n        identityIssuer.active = true;\n    }\n\n    function updateIdentityIssuerEidasLevel(address _identityIssuer, Eidas.EidasLevel _level) public alLeastLow(_level) onlyIdentityIssuer(msg.sender) {\n        IdentityIssuer storage identityIssuer = issuers[_identityIssuer];\n        identityIssuer.level = _level;\n    }\n\n    function deleteIdentityIssuer(address _identityIssuer) public onlyIdentityIssuer(msg.sender) {\n        IdentityIssuer storage identityIssuer = issuers[_identityIssuer];\n        identityIssuer.level = Eidas.EidasLevel.Null;\n        identityIssuer.active = false;\n    }\n\n    function getEidasLevel(address _identityIssuer) public view returns (Eidas.EidasLevel) {\n        return issuers[_identityIssuer].level;\n    }\n    \n     function isIdentityIssuer(address _identityIssuer) public view returns (bool) {\n        return issuers[_identityIssuer].active;\n    }\n\n}\n",
  "sourcePath": "/Users/danielluquequintana/Github/temp-alastriaID-truffle-contracts/contracts/identityManager/AlastriaIdentityIssuer.sol",
  "compiler": {
    "name": "solc",
    "version": "0.5.17+commit.d19bba13.Emscripten.clang"
  },
  "schemaVersion": "3.3.2",
  "updatedAt": "2020-12-04T09:28:21.211Z",
  "devdoc": {
    "methods": {}
  },
  "userdoc": {
    "methods": {}
  }
}