{
  "contractName": "AlastriaPresentationRegistry",
  "abi": [
    {
      "anonymous": false,
      "inputs": [
        {
          "indexed": false,
          "internalType": "bytes32",
          "name": "hash",
          "type": "bytes32"
        },
        {
          "indexed": false,
          "internalType": "enum AlastriaPresentationRegistry.Status",
          "name": "status",
          "type": "uint8"
        }
      ],
      "name": "PresentationUpdated",
      "type": "event"
    },
    {
      "constant": true,
      "inputs": [],
      "name": "previousPublishedVersion",
      "outputs": [
        {
          "internalType": "address",
          "name": "",
          "type": "address"
        }
      ],
      "payable": false,
      "stateMutability": "view",
      "type": "function"
    },
    {
      "constant": true,
      "inputs": [
        {
          "internalType": "address",
          "name": "",
          "type": "address"
        },
        {
          "internalType": "uint256",
          "name": "",
          "type": "uint256"
        }
      ],
      "name": "subjectPresentationListRegistry",
      "outputs": [
        {
          "internalType": "bytes32",
          "name": "",
          "type": "bytes32"
        }
      ],
      "payable": false,
      "stateMutability": "view",
      "type": "function"
    },
    {
      "constant": true,
      "inputs": [
        {
          "internalType": "address",
          "name": "",
          "type": "address"
        },
        {
          "internalType": "bytes32",
          "name": "",
          "type": "bytes32"
        }
      ],
      "name": "subjectPresentationRegistry",
      "outputs": [
        {
          "internalType": "bool",
          "name": "exists",
          "type": "bool"
        },
        {
          "internalType": "enum AlastriaPresentationRegistry.Status",
          "name": "status",
          "type": "uint8"
        },
        {
          "internalType": "string",
          "name": "URI",
          "type": "string"
        }
      ],
      "payable": false,
      "stateMutability": "view",
      "type": "function"
    },
    {
      "constant": true,
      "inputs": [],
      "name": "version",
      "outputs": [
        {
          "internalType": "int256",
          "name": "",
          "type": "int256"
        }
      ],
      "payable": false,
      "stateMutability": "view",
      "type": "function"
    },
    {
      "constant": false,
      "inputs": [
        {
          "internalType": "address",
          "name": "_previousPublishedVersion",
          "type": "address"
        }
      ],
      "name": "initialize",
      "outputs": [],
      "payable": false,
      "stateMutability": "nonpayable",
      "type": "function"
    },
    {
      "constant": false,
      "inputs": [
        {
          "internalType": "bytes32",
          "name": "subjectPresentationHash",
          "type": "bytes32"
        },
        {
          "internalType": "string",
          "name": "URI",
          "type": "string"
        }
      ],
      "name": "addSubjectPresentation",
      "outputs": [],
      "payable": false,
      "stateMutability": "nonpayable",
      "type": "function"
    },
    {
      "constant": false,
      "inputs": [
        {
          "internalType": "bytes32",
          "name": "subjectPresentationHash",
          "type": "bytes32"
        },
        {
          "internalType": "enum AlastriaPresentationRegistry.Status",
          "name": "status",
          "type": "uint8"
        }
      ],
      "name": "updateSubjectPresentation",
      "outputs": [],
      "payable": false,
      "stateMutability": "nonpayable",
      "type": "function"
    },
    {
      "constant": true,
      "inputs": [
        {
          "internalType": "address",
          "name": "subject",
          "type": "address"
        },
        {
          "internalType": "bytes32",
          "name": "subjectPresentationHash",
          "type": "bytes32"
        }
      ],
      "name": "getSubjectPresentationStatus",
      "outputs": [
        {
          "internalType": "bool",
          "name": "exists",
          "type": "bool"
        },
        {
          "internalType": "enum AlastriaPresentationRegistry.Status",
          "name": "status",
          "type": "uint8"
        }
      ],
      "payable": false,
      "stateMutability": "view",
      "type": "function"
    },
    {
      "constant": true,
      "inputs": [
        {
          "internalType": "address",
          "name": "subject",
          "type": "address"
        }
      ],
      "name": "getSubjectPresentationList",
      "outputs": [
        {
          "internalType": "uint256",
          "name": "",
          "type": "uint256"
        },
        {
          "internalType": "bytes32[]",
          "name": "",
          "type": "bytes32[]"
        }
      ],
      "payable": false,
      "stateMutability": "view",
      "type": "function"
    },
    {
      "constant": false,
      "inputs": [
        {
          "internalType": "bytes32",
          "name": "receiverPresentationHash",
          "type": "bytes32"
        },
        {
          "internalType": "enum AlastriaPresentationRegistry.Status",
          "name": "status",
          "type": "uint8"
        }
      ],
      "name": "updateReceiverPresentation",
      "outputs": [],
      "payable": false,
      "stateMutability": "nonpayable",
      "type": "function"
    },
    {
      "constant": true,
      "inputs": [
        {
          "internalType": "address",
          "name": "receiver",
          "type": "address"
        },
        {
          "internalType": "bytes32",
          "name": "receiverPresentationHash",
          "type": "bytes32"
        }
      ],
      "name": "getReceiverPresentationStatus",
      "outputs": [
        {
          "internalType": "bool",
          "name": "exists",
          "type": "bool"
        },
        {
          "internalType": "enum AlastriaPresentationRegistry.Status",
          "name": "status",
          "type": "uint8"
        }
      ],
      "payable": false,
      "stateMutability": "view",
      "type": "function"
    },
    {
      "constant": true,
      "inputs": [
        {
          "internalType": "enum AlastriaPresentationRegistry.Status",
          "name": "subjectStatus",
          "type": "uint8"
        },
        {
          "internalType": "enum AlastriaPresentationRegistry.Status",
          "name": "receiverStatus",
          "type": "uint8"
        }
      ],
      "name": "getPresentationStatus",
      "outputs": [
        {
          "internalType": "enum AlastriaPresentationRegistry.Status",
          "name": "",
          "type": "uint8"
        }
      ],
      "payable": false,
      "stateMutability": "pure",
      "type": "function"
    }
  ],
  "bytecode": "0x61010060405260016080818152600060a081905260c09290925260e09190915261002d90603590600461007d565b5060408051608081018252600080825260016020830181905292820152606081019190915261006090603690600461007d565b506037805460ff1916905534801561007757600080fd5b50610130565b6001830191839082156100ff5791602002820160005b838211156100d057835183826101000a81548160ff0219169083151502179055509260200192600101602081600001049283019260010302610093565b80156100fd5782816101000a81549060ff02191690556001016020816000010492830192600103026100d0565b505b5061010b92915061010f565b5090565b61012d91905b8082111561010b57805460ff19168155600101610115565b90565b610bf68061013f6000396000f3fe608060405234801561001057600080fd5b50600436106100d1576000357c0100000000000000000000000000000000000000000000000000000000900480636104464f1161008e5780636104464f1461032c5780639373014a14610350578063c00dcd0e1461037c578063c4d66de8146103fd578063e473459314610423578063e64af9381461044f576100d1565b8063034f8408146100d65780631e54e325146101225780633000dc39146101e45780634e3a5de51461020c5780635205080f146102b957806354fd4d5014610312575b600080fd5b6100fe600480360360408110156100ec57600080fd5b5060ff81358116916020013516610475565b6040518082600381111561010e57fe5b60ff16815260200191505060405180910390f35b61014e6004803603604081101561013857600080fd5b50600160a060020a03813516906020013561050b565b60405183151581526020810183600381111561016657fe5b60ff16815260200180602001828103825283818151815260200191508051906020019080838360005b838110156101a757818101518382015260200161018f565b50505050905090810190601f1680156101d45780820380516001836020036101000a031916815260200191505b5094505050505060405180910390f35b61020a600480360360408110156101fa57600080fd5b508035906020013560ff166105c4565b005b61020a6004803603604081101561022257600080fd5b8135919081019060408101602082013564010000000081111561024457600080fd5b82018360208201111561025657600080fd5b8035906020019184600183028401116401000000008311171561027857600080fd5b91908080601f0160208091040260200160405190810160405280939291908181526020018383808284376000920191909152509295506106fe945050505050565b6102e5600480360360408110156102cf57600080fd5b50600160a060020a0381351690602001356107cf565b6040518215158152602081018260038111156102fd57fe5b60ff1681526020019250505060405180910390f35b61031a61081e565b60408051918252519081900360200190f35b610334610824565b60408051600160a060020a039092168252519081900360200190f35b6102e56004803603604081101561036657600080fd5b50600160a060020a038135169060200135610833565b6103a26004803603602081101561039257600080fd5b5035600160a060020a0316610882565b6040518083815260200180602001828103825283818151815260200191508051906020019060200280838360005b838110156103e85781810151838201526020016103d0565b50505050905001935050505060405180910390f35b61020a6004803603602081101561041357600080fd5b5035600160a060020a03166108f7565b61031a6004803603604081101561043957600080fd5b50600160a060020a0381351690602001356109e1565b61020a6004803603604081101561046557600080fd5b508035906020013560ff16610a0f565b6000828181600381111561048557fe5b1015801561049f5750600381600381111561049c57fe5b11155b6104a857600080fd5b8260008160038111156104b757fe5b101580156104d1575060038160038111156104ce57fe5b11155b6104da57600080fd5b8360038111156104e657fe5b8560038111156104f257fe5b106104ff57849250610503565b8392505b505092915050565b6038602090815260009283526040808420825291835291819020805460018083018054855160026101009483161585026000190190921691909104601f810188900488028201880190965285815260ff80851697939094049093169490918301828280156105ba5780601f1061058f576101008083540402835291602001916105ba565b820191906000526020600020905b81548152906001019060200180831161059d57829003601f168201915b5050505050905083565b8060008160038111156105d357fe5b101580156105ed575060038160038111156105ea57fe5b11155b6105f657600080fd5b336000908152603a60209081526040808320868452909152902060375460ff1615801561064257508054610100900460ff16600381111561063357fe5b83600381111561063f57fe5b11155b1561064d57506106f9565b603683600381111561065b57fe5b6004811061066557fe5b602081049091015460ff601f9092166101000a900416156106f757805460ff19166001178082558390829061ff0019166101008360038111156106a457fe5b02179055507f52035ff46a15e119b23cfbf756f83f68ee8740523a40b78f621fdd44f091fb388484604051808381526020018260038111156106e257fe5b60ff1681526020019250505060405180910390a15b505b505050565b33600090815260386020908152604080832085845290915290205460ff161561072657600080fd5b60408051606081019091526001815260208101600081526020908101839052336000908152603882526040808220868352835290208251815460ff191690151517808255918301519091829061ff00191661010083600381111561078657fe5b0217905550604082015180516107a6916001840191602090910190610afb565b505033600090815260396020908152604082208054600181018255908352912001929092555050565b60008083600160a060020a0381166107e657600080fd5b505050600160a060020a03919091166000908152603860209081526040808320938352929052205460ff808216926101009092041690565b60335481565b603454600160a060020a031681565b60008083600160a060020a03811661084a57600080fd5b505050600160a060020a03919091166000908152603a60209081526040808320938352929052205460ff808216926101009092041690565b600160a060020a03811660009081526039602090815260408083208054825181850281018501909352808352606093909290829084908301828280156108e757602002820191906000526020600020905b8154815260200190600101908083116108d3575b5050505050905091509150915091565b600054610100900460ff16806109105750610910610af4565b8061091e575060005460ff16155b610973576040517f08c379a000000000000000000000000000000000000000000000000000000000815260040180806020018281038252602e815260200180610b94602e913960400191505060405180910390fd5b600054610100900460ff1615801561099e576000805460ff1961ff0019909116610100171660011790555b60046033556034805473ffffffffffffffffffffffffffffffffffffffff1916600160a060020a03841617905580156109dd576000805461ff00191690555b5050565b603960205281600052604060002081815481106109fa57fe5b90600052602060002001600091509150505481565b806000816003811115610a1e57fe5b10158015610a3857506003816003811115610a3557fe5b11155b610a4157600080fd5b3360009081526038602090815260408083208684529091529020805460ff16610a6a57506106f9565b60375460ff16158015610a9c57508054610100900460ff166003811115610a8d57fe5b836003811115610a9957fe5b11155b15610aa757506106f9565b6035836003811115610ab557fe5b60048110610abf57fe5b602081049091015460ff601f9092166101000a900416156106f75780548390829061ff0019166101008360038111156106a457fe5b303b155b90565b828054600181600116156101000203166002900490600052602060002090601f016020900481019282601f10610b3c57805160ff1916838001178555610b69565b82800160010185558215610b69579182015b82811115610b69578251825591602001919060010190610b4e565b50610b75929150610b79565b5090565b610af891905b80821115610b755760008155600101610b7f56fe436f6e747261637420696e7374616e63652068617320616c7265616479206265656e20696e697469616c697a6564a265627a7a72315820627278eed11f2d48a2502498569d6bc7c61bc8fc4313c7e5440515edc919eea564736f6c63430005110032",
  "source": "pragma solidity 0.5.17;\n\nimport \"../openzeppelin/Initializable.sol\";\n\n\ncontract AlastriaPresentationRegistry is Initializable {\n\n    // Subject Presentation actions are registered under subjectPresentationHash = hash(Presentation)\n    // in a (subject, subjectPresentationHash) mapping\n    // Receiver (ussually a Service Provider) Presentation Actions are registered\n    // under receiverPresentationHash = hash(Presentations + PresentationSignature) in a (receiver, receiverPresentationHash) mapping\n    // A List of Subject Presentation Hashes is gathered in a (subject) mapping\n    // To Review: Subject Presentations  could be iterated instead of returned as an array\n\n\n    // Variables\n    int public version;\n    address public previousPublishedVersion;\n\n\n    // Status definition, should be moved to a Library.\n    enum Status {Valid, Received, AskDeletion, DeletionConfirmation}\n    Status constant STATUS_FIRST = Status.Valid;\n    Status constant STATUS_LAST = Status.DeletionConfirmation;\n    int constant STATUS_SIZE = 4;\n    bool[STATUS_SIZE] subjectAllowed = [\n        true,\n        false,\n        true,\n        false\n    ];\n    bool[STATUS_SIZE] receiverAllowed = [\n        false,\n        true,\n        false,\n        true\n    ];\n    bool backTransitionsAllowed = false;\n\n\n    // Presentation: Initially set to Valid\n    // Updates as allowed in *allow arrays\n    struct SubjectPresentation {\n        bool exists;\n        Status status;\n        string URI;\n    }\n    // Mapping subject, subjectPresentationHash (Complete JSON Presentation)\n    mapping(address => mapping(bytes32 => SubjectPresentation)) public subjectPresentationRegistry;\n    mapping(address => bytes32[]) public subjectPresentationListRegistry;\n\n    struct ReceiverPresentation {\n        bool exists;\n        Status status;\n    }\n    // Mapping receiver, receiverPresentationHash (Complete JSON Presentation + PresentationSignature)\n    mapping(address => mapping(bytes32 => ReceiverPresentation)) private receiverPresentationRegistry;\n\n\n    // Events. Just for changes, not for initial set\n    event PresentationUpdated (bytes32 hash, Status status);\n\n\n    //Modifiers\n    modifier validAddress(address addr) {//protects against some weird attacks\n        require(addr != address(0));\n        _;\n    }\n\n    modifier validStatus (Status status) { // solidity currently check on use not at function call\n        require (status >= STATUS_FIRST && status <= STATUS_LAST);\n        _;\n    }\n\n    // Functions\n    function initialize(address _previousPublishedVersion) public initializer {\n        version = 4;\n        previousPublishedVersion = _previousPublishedVersion;\n    }\n\n    //\n    //Subject functions\n    function addSubjectPresentation(bytes32 subjectPresentationHash, string memory URI) public {\n        require(!subjectPresentationRegistry[msg.sender][subjectPresentationHash].exists);\n        subjectPresentationRegistry[msg.sender][subjectPresentationHash] = SubjectPresentation(true, Status.Valid, URI);\n        subjectPresentationListRegistry[msg.sender].push(subjectPresentationHash);\n    }\n\n    function updateSubjectPresentation(bytes32 subjectPresentationHash, Status status) public validStatus(status) {\n        SubjectPresentation storage value = subjectPresentationRegistry[msg.sender][subjectPresentationHash];\n        // Check existence and backtransitions, should be requires?\n        if (!value.exists) {\n            return;\n        }\n        if (!backTransitionsAllowed && status <= value.status) {\n            return;\n        }\n        if (subjectAllowed[uint(status)]) {\n            value.status = status;\n            emit PresentationUpdated(subjectPresentationHash, status);\n        }\n    }\n\n    // If the Presentation does not exists the return is a void Presentation\n    // If we want a log, should we add an event?\n    function getSubjectPresentationStatus(address subject, bytes32 subjectPresentationHash) view public validAddress(subject) returns (bool exists, Status status) {\n        SubjectPresentation storage value = subjectPresentationRegistry[subject][subjectPresentationHash];\n        return (value.exists, value.status);\n    }\n\n    function getSubjectPresentationList(address subject) public view returns (uint, bytes32[] memory) {\n        return (subjectPresentationListRegistry[subject].length, subjectPresentationListRegistry[subject]);\n    }\n\n    //\n    //Receiver functions\n    function updateReceiverPresentation(bytes32 receiverPresentationHash, Status status) public validStatus(status) {\n        ReceiverPresentation storage value = receiverPresentationRegistry[msg.sender][receiverPresentationHash];\n        // No previous existence required. Check backward transition\n        if (!backTransitionsAllowed && status <= value.status) {\n            return;\n        }\n        if (receiverAllowed[uint(status)]) {\n            value.exists = true;\n            value.status = status;\n            emit PresentationUpdated(receiverPresentationHash, status);\n        }\n    }\n\n    // If the Presentation does not exists the return is a void Presentation\n    // If we want a log, should we add an event?\n    function getReceiverPresentationStatus(address receiver, bytes32 receiverPresentationHash) view public validAddress(receiver) returns (bool exists, Status status) {\n        ReceiverPresentation storage value = receiverPresentationRegistry[receiver][receiverPresentationHash];\n        return (value.exists, value.status);\n    }\n\n    // Utility function\n    // Defining three status functions avoids linking the Subject to the Receiver or the corresponding hashes\n    function getPresentationStatus(Status subjectStatus, Status receiverStatus) pure public validStatus(subjectStatus) validStatus(receiverStatus) returns (Status){\n        if (subjectStatus >= receiverStatus) {\n            return subjectStatus;\n        } else {\n            return receiverStatus;\n        }\n    }\n}",
  "sourcePath": "/Users/danielluquequintana/Github/temp-alastriaID-truffle-contracts/contracts/registry/AlastriaPresentationRegistry.sol",
  "compiler": {
    "name": "solc",
    "version": "0.5.17+commit.d19bba13.Emscripten.clang"
  },
  "schemaVersion": "3.3.2",
  "updatedAt": "2020-12-04T09:28:21.233Z",
  "devdoc": {
    "methods": {}
  },
  "userdoc": {
    "methods": {}
  }
}