{
  "contractName": "AlastriaProxy",
  "abi": [
    {
      "anonymous": false,
      "inputs": [
        {
          "indexed": true,
          "internalType": "address",
          "name": "destination",
          "type": "address"
        },
        {
          "indexed": false,
          "internalType": "uint256",
          "name": "value",
          "type": "uint256"
        },
        {
          "indexed": false,
          "internalType": "bytes",
          "name": "data",
          "type": "bytes"
        },
        {
          "indexed": false,
          "internalType": "bytes",
          "name": "result",
          "type": "bytes"
        }
      ],
      "name": "Forwarded",
      "type": "event"
    },
    {
      "payable": false,
      "stateMutability": "nonpayable",
      "type": "fallback"
    },
    {
      "constant": true,
      "inputs": [
        {
          "internalType": "address",
          "name": "addr",
          "type": "address"
        }
      ],
      "name": "isOwner",
      "outputs": [
        {
          "internalType": "bool",
          "name": "",
          "type": "bool"
        }
      ],
      "payable": false,
      "stateMutability": "view",
      "type": "function"
    },
    {
      "constant": true,
      "inputs": [],
      "name": "owner",
      "outputs": [
        {
          "internalType": "address",
          "name": "",
          "type": "address"
        }
      ],
      "payable": false,
      "stateMutability": "view",
      "type": "function"
    },
    {
      "constant": false,
      "inputs": [
        {
          "internalType": "address",
          "name": "newOwner",
          "type": "address"
        }
      ],
      "name": "transfer",
      "outputs": [],
      "payable": false,
      "stateMutability": "nonpayable",
      "type": "function"
    },
    {
      "constant": false,
      "inputs": [
        {
          "internalType": "address",
          "name": "destination",
          "type": "address"
        },
        {
          "internalType": "uint256",
          "name": "value",
          "type": "uint256"
        },
        {
          "internalType": "bytes",
          "name": "data",
          "type": "bytes"
        }
      ],
      "name": "forward",
      "outputs": [
        {
          "internalType": "bytes",
          "name": "",
          "type": "bytes"
        }
      ],
      "payable": false,
      "stateMutability": "nonpayable",
      "type": "function"
    }
  ],
  "bytecode": "0x608060405260008054600160a060020a031916331790556104ad806100256000396000f3fe608060405234801561001057600080fd5b5060043610610068577c010000000000000000000000000000000000000000000000000000000060003504631a695230811461006d5780632f54bf6e146100955780638da5cb5b146100cf578063d7f31eb9146100f3575b600080fd5b6100936004803603602081101561008357600080fd5b5035600160a060020a0316610223565b005b6100bb600480360360208110156100ab57600080fd5b5035600160a060020a0316610271565b604080519115158252519081900360200190f35b6100d7610285565b60408051600160a060020a039092168252519081900360200190f35b6101ae6004803603606081101561010957600080fd5b600160a060020a038235169160208101359181019060608101604082013564010000000081111561013957600080fd5b82018360208201111561014b57600080fd5b8035906020019184600183028401116401000000008311171561016d57600080fd5b91908080601f016020809104026020016040519081016040528093929190818152602001838380828437600092019190915250929550610294945050505050565b6040805160208082528351818301528351919283929083019185019080838360005b838110156101e85781810151838201526020016101d0565b50505050905090810190601f1680156102155780820380516001836020036101000a031916815260200191505b509250505060405180910390f35b61022c33610271565b61023557600080fd5b600160a060020a038116301461026e576000805473ffffffffffffffffffffffffffffffffffffffff1916600160a060020a0383161790555b50565b600054600160a060020a0390811691161490565b600054600160a060020a031681565b606061029f33610271565b6102a857600080fd5b6000606085600160a060020a031685856040518082805190602001908083835b602083106102e75780518252601f1990920191602091820191016102c8565b6001836020036101000a03801982511681845116808217855250505050505090500191505060006040518083038185875af1925050503d8060008114610349576040519150601f19603f3d011682016040523d82523d6000602084013e61034e565b606091505b50915091508161035d57600080fd5b85600160a060020a03167f8cd7411f6d2d65dd25e1b8e9e19f9b5b720c01622c9e25049b72837b1bbc1743868684604051808481526020018060200180602001838103835285818151815260200191508051906020019080838360005b838110156103d25781810151838201526020016103ba565b50505050905090810190601f1680156103ff5780820380516001836020036101000a031916815260200191505b50838103825284518152845160209182019186019080838360005b8381101561043257818101518382015260200161041a565b50505050905090810190601f16801561045f5780820380516001836020036101000a031916815260200191505b509550505050505060405180910390a29594505050505056fea265627a7a72315820aa357b2e80972e709e09d2094fd99ca648802343ed1ac8e10fa88f60d894a9bd64736f6c63430005110032",
  "source": "pragma solidity 0.5.17;\n\nimport \"../libs/Owned.sol\";\n\ncontract AlastriaProxy is Owned {\n    //address public owner;\n\n    event Forwarded(address indexed destination, uint256 value, bytes data, bytes result);\n\n    //TODO: upgradeable owner for version in Identity Manager\n    //constructor () public {\n    //    owner = msg.sender;\n    //}\n\n    function () external {\n        revert();\n    }\n\n    function forward(\n        address destination,\n        uint256 value,\n        bytes memory data\n    ) public onlyOwner returns(bytes memory) {\n        (bool ret, bytes memory result) = destination.call.value(value)(data);\n        require(ret);\n        emit Forwarded(destination, value, data, result);\n        return result;\n    }\n}\n",
  "sourcePath": "/home/anthares101/Proyectos/temp-alastriaID-truffle-contracts/contracts/identityManager/AlastriaProxy.sol",
  "compiler": {
    "name": "solc",
    "version": "0.5.17+commit.d19bba13.Emscripten.clang"
  },
  "schemaVersion": "3.3.2",
  "updatedAt": "2021-04-12T12:20:20.338Z",
  "devdoc": {
    "methods": {}
  },
  "userdoc": {
    "methods": {}
  }
}