{
  "contractName": "Eidas",
  "abi": [
    {
      "constant": true,
      "inputs": [
        {
          "internalType": "enum Eidas.EidasLevel",
          "name": "_eidasLevel",
          "type": "Eidas.EidasLevel"
        }
      ],
      "name": "atLeastLow",
      "outputs": [
        {
          "internalType": "bool",
          "name": "",
          "type": "bool"
        }
      ],
      "payable": false,
      "stateMutability": "pure",
      "type": "function"
    },
    {
      "constant": true,
      "inputs": [
        {
          "internalType": "enum Eidas.EidasLevel",
          "name": "_eidasLevel",
          "type": "Eidas.EidasLevel"
        },
        {
          "internalType": "enum Eidas.EidasLevel",
          "name": "_level",
          "type": "Eidas.EidasLevel"
        }
      ],
      "name": "atLeast",
      "outputs": [
        {
          "internalType": "bool",
          "name": "",
          "type": "bool"
        }
      ],
      "payable": false,
      "stateMutability": "pure",
      "type": "function"
    }
  ],
  "bytecode": "0x61011b610026600b82828239805160001a60731461001957fe5b30600052607381538281f3fe73000000000000000000000000000000000000000030146080604052600436106059577c010000000000000000000000000000000000000000000000000000000060003504630fa78bf78114605e578063f264148314608f575b600080fd5b607b60048036036020811015607257600080fd5b503560ff1660b4565b604080519115158252519081900360200190f35b607b6004803603604081101560a357600080fd5b5060ff8135811691602001351660c5565b600060bf82600260c5565b92915050565b600081600481111560d257fe5b83600481111560dd57fe5b1015939250505056fea265627a7a72315820b2b10dd87f7b6a28e11c9ee6f55b94aaa38f54b284a0d1d81b26c7242cbad71564736f6c63430005110032",
  "source": "pragma solidity 0.5.17;\n\nlibrary Eidas {\n\n    enum EidasLevel { Null, Reputational, Low, Substantial, High }\n\n    /*function onlyReputational(EidasLevel _eidasLevel) returns (bool) {\n        return (_eidasLevel == EidasLevel.Reputational);\n    }\n\n    function onlyLow(EidasLevel _eidasLevel) returns (bool) {\n        return (_eidasLevel == EidasLevel.Low);\n    }\n\n    function onlySubstantial(EidasLevel _eidasLevel) returns (bool) {\n        return (_eidasLevel == EidasLevel.Substantial);\n    }\n\n    function onlyHigh(EidasLevel _eidasLevel) returns (bool) {\n        return (_eidasLevel == EidasLevel.High);\n    }*/\n\n    function atLeastLow(EidasLevel _eidasLevel) public pure returns (bool) {\n        return atLeast(_eidasLevel, EidasLevel.Low);\n    }\n\n    /*function alLeastSubstantial(EidasLevel _eidasLevel) returns (bool) {\n        return atLeast(_eidasLevel, EidasLevel.Substantial);\n    }\n\n    function alLeastHigh(EidasLevel _eidasLevel) returns (bool) {\n        return atLeast(_eidasLevel, EidasLevel.High);\n    }*/\n\n    function atLeast(EidasLevel _eidasLevel, EidasLevel _level) public pure returns (bool) {\n        return (uint(_eidasLevel) >= uint(_level));\n    }\n\n    /*function notNull(EidasLevel _eidasLevel) returns (bool) {\n        return _eidasLevel != EidasLevel.Null;\n    }\n\n    function toEidasLevel(uint _level) returns (EidasLevel) {\n        return EidasLevel(_level);\n    }*/\n\n}\n",
  "sourcePath": "/Users/danielluquequintana/Github/temp-alastriaID-truffle-contracts/contracts/libs/Eidas.sol",
  "compiler": {
    "name": "solc",
    "version": "0.5.17+commit.d19bba13.Emscripten.clang"
  },
  "schemaVersion": "3.3.2",
  "updatedAt": "2020-12-04T09:28:21.218Z",
  "devdoc": {
    "methods": {}
  },
  "userdoc": {
    "methods": {}
  }
}