{
  "contractName": "Owned",
  "abi": [
    {
      "inputs": [],
      "payable": false,
      "stateMutability": "nonpayable",
      "type": "constructor"
    },
    {
      "constant": true,
      "inputs": [],
      "name": "owner",
      "outputs": [
        {
          "internalType": "address",
          "name": "",
          "type": "address"
        }
      ],
      "payable": false,
      "stateMutability": "view",
      "type": "function"
    },
    {
      "constant": true,
      "inputs": [
        {
          "internalType": "address",
          "name": "addr",
          "type": "address"
        }
      ],
      "name": "isOwner",
      "outputs": [
        {
          "internalType": "bool",
          "name": "",
          "type": "bool"
        }
      ],
      "payable": false,
      "stateMutability": "view",
      "type": "function"
    },
    {
      "constant": false,
      "inputs": [
        {
          "internalType": "address",
          "name": "newOwner",
          "type": "address"
        }
      ],
      "name": "transfer",
      "outputs": [],
      "payable": false,
      "stateMutability": "nonpayable",
      "type": "function"
    }
  ],
  "bytecode": "0x608060405234801561001057600080fd5b5060008054600160a060020a0319163317905561018e806100326000396000f3fe608060405234801561001057600080fd5b506004361061005d577c010000000000000000000000000000000000000000000000000000000060003504631a69523081146100625780632f54bf6e1461008a5780638da5cb5b146100c4575b600080fd5b6100886004803603602081101561007857600080fd5b5035600160a060020a03166100e8565b005b6100b0600480360360208110156100a057600080fd5b5035600160a060020a0316610136565b604080519115158252519081900360200190f35b6100cc61014a565b60408051600160a060020a039092168252519081900360200190f35b6100f133610136565b6100fa57600080fd5b600160a060020a0381163014610133576000805473ffffffffffffffffffffffffffffffffffffffff1916600160a060020a0383161790555b50565b600054600160a060020a0390811691161490565b600054600160a060020a03168156fea265627a7a72315820e94976647ec551d297c5e50b3201357be670282c8b443e59d4f0a94b2c83970a64736f6c63430005110032",
  "source": "pragma solidity 0.5.17;\n\ncontract Owned {\n    address public owner;\n    modifier onlyOwner() {\n        require(isOwner(msg.sender));\n        _;\n    }\n\n    constructor () public {\n        owner = msg.sender;\n    }\n\n    function isOwner(address addr) public view returns(bool) {\n        return addr == owner;\n    }\n\n    function transfer(address newOwner) public onlyOwner {\n        if (newOwner != address(this)) {\n            owner = newOwner;\n        }\n    }\n}\n",
  "sourcePath": "/Users/danielluquequintana/Github/temp-alastriaID-truffle-contracts/contracts/libs/Owned.sol",
  "compiler": {
    "name": "solc",
    "version": "0.5.17+commit.d19bba13.Emscripten.clang"
  },
  "schemaVersion": "3.3.2",
  "updatedAt": "2020-12-04T09:28:21.218Z",
  "devdoc": {
    "methods": {}
  },
  "userdoc": {
    "methods": {}
  }
}